{"contracts/othertest/B.sol":{"B":{"abi":[{"inputs":[],"name":"getColor","outputs":[{"internalType":"uint256","name":"","type":"uint256"}],"stateMutability":"pure","type":"function"},{"inputs":[],"name":"getFavorNumber","outputs":[{"internalType":"uint256","name":"","type":"uint256"}],"stateMutability":"pure","type":"function"}],"devdoc":{"kind":"dev","methods":{},"version":1},"evm":{"bytecode":{"linkReferences":{},"object":"6080604052348015600f57600080fd5b50608c8061001e6000396000f3fe6080604052348015600f57600080fd5b506004361060325760003560e01c80639a86139b146037578063ec0c345814604e575b600080fd5b620516845b60405190815260200160405180910390f35b6203647d603c56fea2646970667358221220ee98760bec94304d7caa41794e29af1c5c05423b9888ad4b7e2fba95f983b6c764736f6c63430008180033","opcodes":"PUSH1 0x80 PUSH1 0x40 MSTORE CALLVALUE DUP1 ISZERO PUSH1 0xF JUMPI PUSH1 0x0 DUP1 REVERT JUMPDEST POP PUSH1 0x8C DUP1 PUSH2 0x1E PUSH1 0x0 CODECOPY PUSH1 0x0 RETURN INVALID PUSH1 0x80 PUSH1 0x40 MSTORE CALLVALUE DUP1 ISZERO PUSH1 0xF JUMPI PUSH1 0x0 DUP1 REVERT JUMPDEST POP PUSH1 0x4 CALLDATASIZE LT PUSH1 0x32 JUMPI PUSH1 0x0 CALLDATALOAD PUSH1 0xE0 SHR DUP1 PUSH4 0x9A86139B EQ PUSH1 0x37 JUMPI DUP1 PUSH4 0xEC0C3458 EQ PUSH1 0x4E JUMPI JUMPDEST PUSH1 0x0 DUP1 REVERT JUMPDEST PUSH3 0x51684 JUMPDEST PUSH1 0x40 MLOAD SWAP1 DUP2 MSTORE PUSH1 0x20 ADD PUSH1 0x40 MLOAD DUP1 SWAP2 SUB SWAP1 RETURN JUMPDEST PUSH3 0x3647D PUSH1 0x3C JUMP INVALID LOG2 PUSH5 0x6970667358 0x22 SLT KECCAK256 0xEE SWAP9 PUSH23 0xBEC94304D7CAA41794E29AF1C5C05423B9888AD4B7E2F 0xBA SWAP6 0xF9 DUP4 0xB6 0xC7 PUSH5 0x736F6C6343 STOP ADDMOD XOR STOP CALLER "},"gasEstimates":{"creation":{"codeDepositCost":"28000","executionCost":"81","totalCost":"28081"},"external":{"getColor()":"147","getFavorNumber()":"180"}},"methodIdentifiers":{"getColor()":"9a86139b","getFavorNumber()":"ec0c3458"}},"storageLayout":{"storage":[],"types":null},"userdoc":{"kind":"user","methods":{},"version":1}}}}