{"contracts/othertest/A.sol":{"A":{"abi":[{"inputs":[],"name":"getColor","outputs":[{"internalType":"uint256","name":"","type":"uint256"}],"stateMutability":"pure","type":"function"},{"inputs":[],"name":"getFavorNumber","outputs":[{"internalType":"uint256","name":"","type":"uint256"}],"stateMutability":"pure","type":"function"},{"inputs":[],"name":"getName","outputs":[{"internalType":"uint256","name":"","type":"uint256"}],"stateMutability":"pure","type":"function"}],"devdoc":{"kind":"dev","methods":{},"version":1},"evm":{"bytecode":{"linkReferences":{},"object":"6080604052348015600f57600080fd5b50609e8061001e6000396000f3fe6080604052348015600f57600080fd5b5060043610603c5760003560e01c806317d7de7c1460415780639a86139b146058578063ec0c3458146060575b600080fd5b6201b2765b60405190815260200160405180910390f35b620516846046565b6203647d604656fea26469706673582212200da249625f16901763a456eda95d63dbda0373329066215720b0df269bc64a5064736f6c63430008180033","opcodes":"PUSH1 0x80 PUSH1 0x40 MSTORE CALLVALUE DUP1 ISZERO PUSH1 0xF JUMPI PUSH1 0x0 DUP1 REVERT JUMPDEST POP PUSH1 0x9E DUP1 PUSH2 0x1E PUSH1 0x0 CODECOPY PUSH1 0x0 RETURN INVALID PUSH1 0x80 PUSH1 0x40 MSTORE CALLVALUE DUP1 ISZERO PUSH1 0xF JUMPI PUSH1 0x0 DUP1 REVERT JUMPDEST POP PUSH1 0x4 CALLDATASIZE LT PUSH1 0x3C JUMPI PUSH1 0x0 CALLDATALOAD PUSH1 0xE0 SHR DUP1 PUSH4 0x17D7DE7C EQ PUSH1 0x41 JUMPI DUP1 PUSH4 0x9A86139B EQ PUSH1 0x58 JUMPI DUP1 PUSH4 0xEC0C3458 EQ PUSH1 0x60 JUMPI JUMPDEST PUSH1 0x0 DUP1 REVERT JUMPDEST PUSH3 0x1B276 JUMPDEST PUSH1 0x40 MLOAD SWAP1 DUP2 MSTORE PUSH1 0x20 ADD PUSH1 0x40 MLOAD DUP1 SWAP2 SUB SWAP1 RETURN JUMPDEST PUSH3 0x51684 PUSH1 0x46 JUMP JUMPDEST PUSH3 0x3647D PUSH1 0x46 JUMP INVALID LOG2 PUSH5 0x6970667358 0x22 SLT KECCAK256 0xD LOG2 BLOBHASH PUSH3 0x5F1690 OR PUSH4 0xA456EDA9 TSTORE PUSH4 0xDBDA0373 ORIGIN SWAP1 PUSH7 0x215720B0DF269B 0xC6 BLOBBASEFEE POP PUSH5 0x736F6C6343 STOP ADDMOD XOR STOP CALLER "},"gasEstimates":{"creation":{"codeDepositCost":"31600","executionCost":"81","totalCost":"31681"},"external":{"getColor()":"180","getFavorNumber()":"202","getName()":"147"}},"methodIdentifiers":{"getColor()":"9a86139b","getFavorNumber()":"ec0c3458","getName()":"17d7de7c"}},"storageLayout":{"storage":[],"types":null},"userdoc":{"kind":"user","methods":{},"version":1}}}}