{
  "_format": "hh-sol-artifact-1",
  "contractName": "A",
  "sourceName": "contracts/othertest/A.sol",
  "abi": [
    {
      "inputs": [],
      "name": "getColor",
      "outputs": [
        {
          "internalType": "uint256",
          "name": "",
          "type": "uint256"
        }
      ],
      "stateMutability": "pure",
      "type": "function"
    },
    {
      "inputs": [],
      "name": "getFavorNumber",
      "outputs": [
        {
          "internalType": "uint256",
          "name": "",
          "type": "uint256"
        }
      ],
      "stateMutability": "pure",
      "type": "function"
    },
    {
      "inputs": [],
      "name": "getName",
      "outputs": [
        {
          "internalType": "uint256",
          "name": "",
          "type": "uint256"
        }
      ],
      "stateMutability": "pure",
      "type": "function"
    }
  ],
  "bytecode": "0x6080604052348015600f57600080fd5b50609e8061001e6000396000f3fe6080604052348015600f57600080fd5b5060043610603c5760003560e01c806317d7de7c1460415780639a86139b146058578063ec0c3458146060575b600080fd5b6201b2765b60405190815260200160405180910390f35b620516846046565b6203647d604656fea26469706673582212200da249625f16901763a456eda95d63dbda0373329066215720b0df269bc64a5064736f6c63430008180033",
  "linkReferences": {},
  "deployedLinkReferences": {}
}