{
  "_format": "hh-sol-artifact-1",
  "contractName": "C",
  "sourceName": "contracts/othertest/C.sol",
  "abi": [
    {
      "inputs": [],
      "name": "getColor",
      "outputs": [
        {
          "internalType": "uint256",
          "name": "",
          "type": "uint256"
        }
      ],
      "stateMutability": "pure",
      "type": "function"
    }
  ],
  "bytecode": "0x6080604052348015600f57600080fd5b50607980601d6000396000f3fe6080604052348015600f57600080fd5b506004361060285760003560e01c80639a86139b14602d575b600080fd5b6205168460405190815260200160405180910390f3fea26469706673582212203ed05031851fc32c0fe71236ff4f770498ef2bdc9bc79937f6c87476255df6e164736f6c63430008180033",
  "linkReferences": {},
  "deployedLinkReferences": {}
}