{
  "address": "0xCf7Ed3AccA5a467e9e704C703E8D87F634fB0Fc9",
  "abi": [
    {
      "inputs": [
        {
          "internalType": "contract IVotes",
          "name": "_token",
          "type": "address"
        },
        {
          "internalType": "contract TimelockController",
          "name": "_timelock",
          "type": "address"
        },
        {
          "internalType": "uint48",
          "name": "_votingDelay",
          "type": "uint48"
        },
        {
          "internalType": "uint32",
          "name": "_votingPeriod",
          "type": "uint32"
        },
        {
          "internalType": "uint256",
          "name": "_proposalThreshold",
          "type": "uint256"
        }
      ],
      "stateMutability": "nonpayable",
      "type": "constructor"
    },
    {
      "inputs": [],
      "name": "CheckpointUnorderedInsertion",
      "type": "error"
    },
    {
      "inputs": [],
      "name": "FailedInnerCall",
      "type": "error"
    },
    {
      "inputs": [
        {
          "internalType": "address",
          "name": "voter",
          "type": "address"
        }
      ],
      "name": "GovernorAlreadyCastVote",
      "type": "error"
    },
    {
      "inputs": [
        {
          "internalType": "uint256",
          "name": "proposalId",
          "type": "uint256"
        }
      ],
      "name": "GovernorAlreadyQueuedProposal",
      "type": "error"
    },
    {
      "inputs": [],
      "name": "GovernorDisabledDeposit",
      "type": "error"
    },
    {
      "inputs": [
        {
          "internalType": "address",
          "name": "proposer",
          "type": "address"
        },
        {
          "internalType": "uint256",
          "name": "votes",
          "type": "uint256"
        },
        {
          "internalType": "uint256",
          "name": "threshold",
          "type": "uint256"
        }
      ],
      "name": "GovernorInsufficientProposerVotes",
      "type": "error"
    },
    {
      "inputs": [
        {
          "internalType": "uint256",
          "name": "targets",
          "type": "uint256"
        },
        {
          "internalType": "uint256",
          "name": "calldatas",
          "type": "uint256"
        },
        {
          "internalType": "uint256",
          "name": "values",
          "type": "uint256"
        }
      ],
      "name": "GovernorInvalidProposalLength",
      "type": "error"
    },
    {
      "inputs": [
        {
          "internalType": "uint256",
          "name": "quorumNumerator",
          "type": "uint256"
        },
        {
          "internalType": "uint256",
          "name": "quorumDenominator",
          "type": "uint256"
        }
      ],
      "name": "GovernorInvalidQuorumFraction",
      "type": "error"
    },
    {
      "inputs": [
        {
          "internalType": "address",
          "name": "voter",
          "type": "address"
        }
      ],
      "name": "GovernorInvalidSignature",
      "type": "error"
    },
    {
      "inputs": [],
      "name": "GovernorInvalidVoteType",
      "type": "error"
    },
    {
      "inputs": [
        {
          "internalType": "uint256",
          "name": "votingPeriod",
          "type": "uint256"
        }
      ],
      "name": "GovernorInvalidVotingPeriod",
      "type": "error"
    },
    {
      "inputs": [
        {
          "internalType": "uint256",
          "name": "proposalId",
          "type": "uint256"
        }
      ],
      "name": "GovernorNonexistentProposal",
      "type": "error"
    },
    {
      "inputs": [
        {
          "internalType": "uint256",
          "name": "proposalId",
          "type": "uint256"
        }
      ],
      "name": "GovernorNotQueuedProposal",
      "type": "error"
    },
    {
      "inputs": [
        {
          "internalType": "address",
          "name": "account",
          "type": "address"
        }
      ],
      "name": "GovernorOnlyExecutor",
      "type": "error"
    },
    {
      "inputs": [
        {
          "internalType": "address",
          "name": "account",
          "type": "address"
        }
      ],
      "name": "GovernorOnlyProposer",
      "type": "error"
    },
    {
      "inputs": [],
      "name": "GovernorQueueNotImplemented",
      "type": "error"
    },
    {
      "inputs": [
        {
          "internalType": "address",
          "name": "proposer",
          "type": "address"
        }
      ],
      "name": "GovernorRestrictedProposer",
      "type": "error"
    },
    {
      "inputs": [
        {
          "internalType": "uint256",
          "name": "proposalId",
          "type": "uint256"
        },
        {
          "internalType": "enum IGovernor.ProposalState",
          "name": "current",
          "type": "uint8"
        },
        {
          "internalType": "bytes32",
          "name": "expectedStates",
          "type": "bytes32"
        }
      ],
      "name": "GovernorUnexpectedProposalState",
      "type": "error"
    },
    {
      "inputs": [
        {
          "internalType": "address",
          "name": "account",
          "type": "address"
        },
        {
          "internalType": "uint256",
          "name": "currentNonce",
          "type": "uint256"
        }
      ],
      "name": "InvalidAccountNonce",
      "type": "error"
    },
    {
      "inputs": [],
      "name": "InvalidShortString",
      "type": "error"
    },
    {
      "inputs": [],
      "name": "QueueEmpty",
      "type": "error"
    },
    {
      "inputs": [],
      "name": "QueueFull",
      "type": "error"
    },
    {
      "inputs": [
        {
          "internalType": "uint8",
          "name": "bits",
          "type": "uint8"
        },
        {
          "internalType": "uint256",
          "name": "value",
          "type": "uint256"
        }
      ],
      "name": "SafeCastOverflowedUintDowncast",
      "type": "error"
    },
    {
      "inputs": [
        {
          "internalType": "string",
          "name": "str",
          "type": "string"
        }
      ],
      "name": "StringTooLong",
      "type": "error"
    },
    {
      "anonymous": false,
      "inputs": [],
      "name": "EIP712DomainChanged",
      "type": "event"
    },
    {
      "anonymous": false,
      "inputs": [
        {
          "indexed": false,
          "internalType": "uint256",
          "name": "proposalId",
          "type": "uint256"
        }
      ],
      "name": "ProposalCanceled",
      "type": "event"
    },
    {
      "anonymous": false,
      "inputs": [
        {
          "indexed": false,
          "internalType": "uint256",
          "name": "proposalId",
          "type": "uint256"
        },
        {
          "indexed": false,
          "internalType": "address",
          "name": "proposer",
          "type": "address"
        },
        {
          "indexed": false,
          "internalType": "address[]",
          "name": "targets",
          "type": "address[]"
        },
        {
          "indexed": false,
          "internalType": "uint256[]",
          "name": "values",
          "type": "uint256[]"
        },
        {
          "indexed": false,
          "internalType": "string[]",
          "name": "signatures",
          "type": "string[]"
        },
        {
          "indexed": false,
          "internalType": "bytes[]",
          "name": "calldatas",
          "type": "bytes[]"
        },
        {
          "indexed": false,
          "internalType": "uint256",
          "name": "voteStart",
          "type": "uint256"
        },
        {
          "indexed": false,
          "internalType": "uint256",
          "name": "voteEnd",
          "type": "uint256"
        },
        {
          "indexed": false,
          "internalType": "string",
          "name": "description",
          "type": "string"
        }
      ],
      "name": "ProposalCreated",
      "type": "event"
    },
    {
      "anonymous": false,
      "inputs": [
        {
          "indexed": false,
          "internalType": "uint256",
          "name": "proposalId",
          "type": "uint256"
        }
      ],
      "name": "ProposalExecuted",
      "type": "event"
    },
    {
      "anonymous": false,
      "inputs": [
        {
          "indexed": false,
          "internalType": "uint256",
          "name": "proposalId",
          "type": "uint256"
        },
        {
          "indexed": false,
          "internalType": "uint256",
          "name": "etaSeconds",
          "type": "uint256"
        }
      ],
      "name": "ProposalQueued",
      "type": "event"
    },
    {
      "anonymous": false,
      "inputs": [
        {
          "indexed": false,
          "internalType": "uint256",
          "name": "oldProposalThreshold",
          "type": "uint256"
        },
        {
          "indexed": false,
          "internalType": "uint256",
          "name": "newProposalThreshold",
          "type": "uint256"
        }
      ],
      "name": "ProposalThresholdSet",
      "type": "event"
    },
    {
      "anonymous": false,
      "inputs": [
        {
          "indexed": false,
          "internalType": "uint256",
          "name": "oldQuorumNumerator",
          "type": "uint256"
        },
        {
          "indexed": false,
          "internalType": "uint256",
          "name": "newQuorumNumerator",
          "type": "uint256"
        }
      ],
      "name": "QuorumNumeratorUpdated",
      "type": "event"
    },
    {
      "anonymous": false,
      "inputs": [
        {
          "indexed": false,
          "internalType": "address",
          "name": "oldTimelock",
          "type": "address"
        },
        {
          "indexed": false,
          "internalType": "address",
          "name": "newTimelock",
          "type": "address"
        }
      ],
      "name": "TimelockChange",
      "type": "event"
    },
    {
      "anonymous": false,
      "inputs": [
        {
          "indexed": true,
          "internalType": "address",
          "name": "voter",
          "type": "address"
        },
        {
          "indexed": false,
          "internalType": "uint256",
          "name": "proposalId",
          "type": "uint256"
        },
        {
          "indexed": false,
          "internalType": "uint8",
          "name": "support",
          "type": "uint8"
        },
        {
          "indexed": false,
          "internalType": "uint256",
          "name": "weight",
          "type": "uint256"
        },
        {
          "indexed": false,
          "internalType": "string",
          "name": "reason",
          "type": "string"
        }
      ],
      "name": "VoteCast",
      "type": "event"
    },
    {
      "anonymous": false,
      "inputs": [
        {
          "indexed": true,
          "internalType": "address",
          "name": "voter",
          "type": "address"
        },
        {
          "indexed": false,
          "internalType": "uint256",
          "name": "proposalId",
          "type": "uint256"
        },
        {
          "indexed": false,
          "internalType": "uint8",
          "name": "support",
          "type": "uint8"
        },
        {
          "indexed": false,
          "internalType": "uint256",
          "name": "weight",
          "type": "uint256"
        },
        {
          "indexed": false,
          "internalType": "string",
          "name": "reason",
          "type": "string"
        },
        {
          "indexed": false,
          "internalType": "bytes",
          "name": "params",
          "type": "bytes"
        }
      ],
      "name": "VoteCastWithParams",
      "type": "event"
    },
    {
      "anonymous": false,
      "inputs": [
        {
          "indexed": false,
          "internalType": "uint256",
          "name": "oldVotingDelay",
          "type": "uint256"
        },
        {
          "indexed": false,
          "internalType": "uint256",
          "name": "newVotingDelay",
          "type": "uint256"
        }
      ],
      "name": "VotingDelaySet",
      "type": "event"
    },
    {
      "anonymous": false,
      "inputs": [
        {
          "indexed": false,
          "internalType": "uint256",
          "name": "oldVotingPeriod",
          "type": "uint256"
        },
        {
          "indexed": false,
          "internalType": "uint256",
          "name": "newVotingPeriod",
          "type": "uint256"
        }
      ],
      "name": "VotingPeriodSet",
      "type": "event"
    },
    {
      "inputs": [],
      "name": "BALLOT_TYPEHASH",
      "outputs": [
        {
          "internalType": "bytes32",
          "name": "",
          "type": "bytes32"
        }
      ],
      "stateMutability": "view",
      "type": "function"
    },
    {
      "inputs": [],
      "name": "CLOCK_MODE",
      "outputs": [
        {
          "internalType": "string",
          "name": "",
          "type": "string"
        }
      ],
      "stateMutability": "view",
      "type": "function"
    },
    {
      "inputs": [],
      "name": "COUNTING_MODE",
      "outputs": [
        {
          "internalType": "string",
          "name": "",
          "type": "string"
        }
      ],
      "stateMutability": "pure",
      "type": "function"
    },
    {
      "inputs": [],
      "name": "EXTENDED_BALLOT_TYPEHASH",
      "outputs": [
        {
          "internalType": "bytes32",
          "name": "",
          "type": "bytes32"
        }
      ],
      "stateMutability": "view",
      "type": "function"
    },
    {
      "inputs": [
        {
          "internalType": "address[]",
          "name": "targets",
          "type": "address[]"
        },
        {
          "internalType": "uint256[]",
          "name": "values",
          "type": "uint256[]"
        },
        {
          "internalType": "bytes[]",
          "name": "calldatas",
          "type": "bytes[]"
        },
        {
          "internalType": "bytes32",
          "name": "descriptionHash",
          "type": "bytes32"
        }
      ],
      "name": "cancel",
      "outputs": [
        {
          "internalType": "uint256",
          "name": "",
          "type": "uint256"
        }
      ],
      "stateMutability": "nonpayable",
      "type": "function"
    },
    {
      "inputs": [
        {
          "internalType": "uint256",
          "name": "proposalId",
          "type": "uint256"
        },
        {
          "internalType": "uint8",
          "name": "support",
          "type": "uint8"
        }
      ],
      "name": "castVote",
      "outputs": [
        {
          "internalType": "uint256",
          "name": "",
          "type": "uint256"
        }
      ],
      "stateMutability": "nonpayable",
      "type": "function"
    },
    {
      "inputs": [
        {
          "internalType": "uint256",
          "name": "proposalId",
          "type": "uint256"
        },
        {
          "internalType": "uint8",
          "name": "support",
          "type": "uint8"
        },
        {
          "internalType": "address",
          "name": "voter",
          "type": "address"
        },
        {
          "internalType": "bytes",
          "name": "signature",
          "type": "bytes"
        }
      ],
      "name": "castVoteBySig",
      "outputs": [
        {
          "internalType": "uint256",
          "name": "",
          "type": "uint256"
        }
      ],
      "stateMutability": "nonpayable",
      "type": "function"
    },
    {
      "inputs": [
        {
          "internalType": "uint256",
          "name": "proposalId",
          "type": "uint256"
        },
        {
          "internalType": "uint8",
          "name": "support",
          "type": "uint8"
        },
        {
          "internalType": "string",
          "name": "reason",
          "type": "string"
        }
      ],
      "name": "castVoteWithReason",
      "outputs": [
        {
          "internalType": "uint256",
          "name": "",
          "type": "uint256"
        }
      ],
      "stateMutability": "nonpayable",
      "type": "function"
    },
    {
      "inputs": [
        {
          "internalType": "uint256",
          "name": "proposalId",
          "type": "uint256"
        },
        {
          "internalType": "uint8",
          "name": "support",
          "type": "uint8"
        },
        {
          "internalType": "string",
          "name": "reason",
          "type": "string"
        },
        {
          "internalType": "bytes",
          "name": "params",
          "type": "bytes"
        }
      ],
      "name": "castVoteWithReasonAndParams",
      "outputs": [
        {
          "internalType": "uint256",
          "name": "",
          "type": "uint256"
        }
      ],
      "stateMutability": "nonpayable",
      "type": "function"
    },
    {
      "inputs": [
        {
          "internalType": "uint256",
          "name": "proposalId",
          "type": "uint256"
        },
        {
          "internalType": "uint8",
          "name": "support",
          "type": "uint8"
        },
        {
          "internalType": "address",
          "name": "voter",
          "type": "address"
        },
        {
          "internalType": "string",
          "name": "reason",
          "type": "string"
        },
        {
          "internalType": "bytes",
          "name": "params",
          "type": "bytes"
        },
        {
          "internalType": "bytes",
          "name": "signature",
          "type": "bytes"
        }
      ],
      "name": "castVoteWithReasonAndParamsBySig",
      "outputs": [
        {
          "internalType": "uint256",
          "name": "",
          "type": "uint256"
        }
      ],
      "stateMutability": "nonpayable",
      "type": "function"
    },
    {
      "inputs": [],
      "name": "clock",
      "outputs": [
        {
          "internalType": "uint48",
          "name": "",
          "type": "uint48"
        }
      ],
      "stateMutability": "view",
      "type": "function"
    },
    {
      "inputs": [],
      "name": "eip712Domain",
      "outputs": [
        {
          "internalType": "bytes1",
          "name": "fields",
          "type": "bytes1"
        },
        {
          "internalType": "string",
          "name": "name",
          "type": "string"
        },
        {
          "internalType": "string",
          "name": "version",
          "type": "string"
        },
        {
          "internalType": "uint256",
          "name": "chainId",
          "type": "uint256"
        },
        {
          "internalType": "address",
          "name": "verifyingContract",
          "type": "address"
        },
        {
          "internalType": "bytes32",
          "name": "salt",
          "type": "bytes32"
        },
        {
          "internalType": "uint256[]",
          "name": "extensions",
          "type": "uint256[]"
        }
      ],
      "stateMutability": "view",
      "type": "function"
    },
    {
      "inputs": [
        {
          "internalType": "address[]",
          "name": "targets",
          "type": "address[]"
        },
        {
          "internalType": "uint256[]",
          "name": "values",
          "type": "uint256[]"
        },
        {
          "internalType": "bytes[]",
          "name": "calldatas",
          "type": "bytes[]"
        },
        {
          "internalType": "bytes32",
          "name": "descriptionHash",
          "type": "bytes32"
        }
      ],
      "name": "execute",
      "outputs": [
        {
          "internalType": "uint256",
          "name": "",
          "type": "uint256"
        }
      ],
      "stateMutability": "payable",
      "type": "function"
    },
    {
      "inputs": [
        {
          "internalType": "address",
          "name": "account",
          "type": "address"
        },
        {
          "internalType": "uint256",
          "name": "timepoint",
          "type": "uint256"
        }
      ],
      "name": "getVotes",
      "outputs": [
        {
          "internalType": "uint256",
          "name": "",
          "type": "uint256"
        }
      ],
      "stateMutability": "view",
      "type": "function"
    },
    {
      "inputs": [
        {
          "internalType": "address",
          "name": "account",
          "type": "address"
        },
        {
          "internalType": "uint256",
          "name": "timepoint",
          "type": "uint256"
        },
        {
          "internalType": "bytes",
          "name": "params",
          "type": "bytes"
        }
      ],
      "name": "getVotesWithParams",
      "outputs": [
        {
          "internalType": "uint256",
          "name": "",
          "type": "uint256"
        }
      ],
      "stateMutability": "view",
      "type": "function"
    },
    {
      "inputs": [
        {
          "internalType": "uint256",
          "name": "proposalId",
          "type": "uint256"
        },
        {
          "internalType": "address",
          "name": "account",
          "type": "address"
        }
      ],
      "name": "hasVoted",
      "outputs": [
        {
          "internalType": "bool",
          "name": "",
          "type": "bool"
        }
      ],
      "stateMutability": "view",
      "type": "function"
    },
    {
      "inputs": [
        {
          "internalType": "address[]",
          "name": "targets",
          "type": "address[]"
        },
        {
          "internalType": "uint256[]",
          "name": "values",
          "type": "uint256[]"
        },
        {
          "internalType": "bytes[]",
          "name": "calldatas",
          "type": "bytes[]"
        },
        {
          "internalType": "bytes32",
          "name": "descriptionHash",
          "type": "bytes32"
        }
      ],
      "name": "hashProposal",
      "outputs": [
        {
          "internalType": "uint256",
          "name": "",
          "type": "uint256"
        }
      ],
      "stateMutability": "pure",
      "type": "function"
    },
    {
      "inputs": [],
      "name": "name",
      "outputs": [
        {
          "internalType": "string",
          "name": "",
          "type": "string"
        }
      ],
      "stateMutability": "view",
      "type": "function"
    },
    {
      "inputs": [
        {
          "internalType": "address",
          "name": "owner",
          "type": "address"
        }
      ],
      "name": "nonces",
      "outputs": [
        {
          "internalType": "uint256",
          "name": "",
          "type": "uint256"
        }
      ],
      "stateMutability": "view",
      "type": "function"
    },
    {
      "inputs": [
        {
          "internalType": "address",
          "name": "",
          "type": "address"
        },
        {
          "internalType": "address",
          "name": "",
          "type": "address"
        },
        {
          "internalType": "uint256[]",
          "name": "",
          "type": "uint256[]"
        },
        {
          "internalType": "uint256[]",
          "name": "",
          "type": "uint256[]"
        },
        {
          "internalType": "bytes",
          "name": "",
          "type": "bytes"
        }
      ],
      "name": "onERC1155BatchReceived",
      "outputs": [
        {
          "internalType": "bytes4",
          "name": "",
          "type": "bytes4"
        }
      ],
      "stateMutability": "nonpayable",
      "type": "function"
    },
    {
      "inputs": [
        {
          "internalType": "address",
          "name": "",
          "type": "address"
        },
        {
          "internalType": "address",
          "name": "",
          "type": "address"
        },
        {
          "internalType": "uint256",
          "name": "",
          "type": "uint256"
        },
        {
          "internalType": "uint256",
          "name": "",
          "type": "uint256"
        },
        {
          "internalType": "bytes",
          "name": "",
          "type": "bytes"
        }
      ],
      "name": "onERC1155Received",
      "outputs": [
        {
          "internalType": "bytes4",
          "name": "",
          "type": "bytes4"
        }
      ],
      "stateMutability": "nonpayable",
      "type": "function"
    },
    {
      "inputs": [
        {
          "internalType": "address",
          "name": "",
          "type": "address"
        },
        {
          "internalType": "address",
          "name": "",
          "type": "address"
        },
        {
          "internalType": "uint256",
          "name": "",
          "type": "uint256"
        },
        {
          "internalType": "bytes",
          "name": "",
          "type": "bytes"
        }
      ],
      "name": "onERC721Received",
      "outputs": [
        {
          "internalType": "bytes4",
          "name": "",
          "type": "bytes4"
        }
      ],
      "stateMutability": "nonpayable",
      "type": "function"
    },
    {
      "inputs": [
        {
          "internalType": "uint256",
          "name": "proposalId",
          "type": "uint256"
        }
      ],
      "name": "proposalDeadline",
      "outputs": [
        {
          "internalType": "uint256",
          "name": "",
          "type": "uint256"
        }
      ],
      "stateMutability": "view",
      "type": "function"
    },
    {
      "inputs": [
        {
          "internalType": "uint256",
          "name": "proposalId",
          "type": "uint256"
        }
      ],
      "name": "proposalEta",
      "outputs": [
        {
          "internalType": "uint256",
          "name": "",
          "type": "uint256"
        }
      ],
      "stateMutability": "view",
      "type": "function"
    },
    {
      "inputs": [
        {
          "internalType": "uint256",
          "name": "proposalId",
          "type": "uint256"
        }
      ],
      "name": "proposalNeedsQueuing",
      "outputs": [
        {
          "internalType": "bool",
          "name": "",
          "type": "bool"
        }
      ],
      "stateMutability": "view",
      "type": "function"
    },
    {
      "inputs": [
        {
          "internalType": "uint256",
          "name": "proposalId",
          "type": "uint256"
        }
      ],
      "name": "proposalProposer",
      "outputs": [
        {
          "internalType": "address",
          "name": "",
          "type": "address"
        }
      ],
      "stateMutability": "view",
      "type": "function"
    },
    {
      "inputs": [
        {
          "internalType": "uint256",
          "name": "proposalId",
          "type": "uint256"
        }
      ],
      "name": "proposalSnapshot",
      "outputs": [
        {
          "internalType": "uint256",
          "name": "",
          "type": "uint256"
        }
      ],
      "stateMutability": "view",
      "type": "function"
    },
    {
      "inputs": [],
      "name": "proposalThreshold",
      "outputs": [
        {
          "internalType": "uint256",
          "name": "",
          "type": "uint256"
        }
      ],
      "stateMutability": "view",
      "type": "function"
    },
    {
      "inputs": [
        {
          "internalType": "uint256",
          "name": "proposalId",
          "type": "uint256"
        }
      ],
      "name": "proposalVotes",
      "outputs": [
        {
          "internalType": "uint256",
          "name": "againstVotes",
          "type": "uint256"
        },
        {
          "internalType": "uint256",
          "name": "forVotes",
          "type": "uint256"
        },
        {
          "internalType": "uint256",
          "name": "abstainVotes",
          "type": "uint256"
        }
      ],
      "stateMutability": "view",
      "type": "function"
    },
    {
      "inputs": [
        {
          "internalType": "address[]",
          "name": "targets",
          "type": "address[]"
        },
        {
          "internalType": "uint256[]",
          "name": "values",
          "type": "uint256[]"
        },
        {
          "internalType": "bytes[]",
          "name": "calldatas",
          "type": "bytes[]"
        },
        {
          "internalType": "string",
          "name": "description",
          "type": "string"
        }
      ],
      "name": "propose",
      "outputs": [
        {
          "internalType": "uint256",
          "name": "",
          "type": "uint256"
        }
      ],
      "stateMutability": "nonpayable",
      "type": "function"
    },
    {
      "inputs": [
        {
          "internalType": "address[]",
          "name": "targets",
          "type": "address[]"
        },
        {
          "internalType": "uint256[]",
          "name": "values",
          "type": "uint256[]"
        },
        {
          "internalType": "bytes[]",
          "name": "calldatas",
          "type": "bytes[]"
        },
        {
          "internalType": "bytes32",
          "name": "descriptionHash",
          "type": "bytes32"
        }
      ],
      "name": "queue",
      "outputs": [
        {
          "internalType": "uint256",
          "name": "",
          "type": "uint256"
        }
      ],
      "stateMutability": "nonpayable",
      "type": "function"
    },
    {
      "inputs": [
        {
          "internalType": "uint256",
          "name": "blockNumber",
          "type": "uint256"
        }
      ],
      "name": "quorum",
      "outputs": [
        {
          "internalType": "uint256",
          "name": "",
          "type": "uint256"
        }
      ],
      "stateMutability": "view",
      "type": "function"
    },
    {
      "inputs": [],
      "name": "quorumDenominator",
      "outputs": [
        {
          "internalType": "uint256",
          "name": "",
          "type": "uint256"
        }
      ],
      "stateMutability": "view",
      "type": "function"
    },
    {
      "inputs": [
        {
          "internalType": "uint256",
          "name": "timepoint",
          "type": "uint256"
        }
      ],
      "name": "quorumNumerator",
      "outputs": [
        {
          "internalType": "uint256",
          "name": "",
          "type": "uint256"
        }
      ],
      "stateMutability": "view",
      "type": "function"
    },
    {
      "inputs": [],
      "name": "quorumNumerator",
      "outputs": [
        {
          "internalType": "uint256",
          "name": "",
          "type": "uint256"
        }
      ],
      "stateMutability": "view",
      "type": "function"
    },
    {
      "inputs": [
        {
          "internalType": "address",
          "name": "target",
          "type": "address"
        },
        {
          "internalType": "uint256",
          "name": "value",
          "type": "uint256"
        },
        {
          "internalType": "bytes",
          "name": "data",
          "type": "bytes"
        }
      ],
      "name": "relay",
      "outputs": [],
      "stateMutability": "payable",
      "type": "function"
    },
    {
      "inputs": [
        {
          "internalType": "uint256",
          "name": "newProposalThreshold",
          "type": "uint256"
        }
      ],
      "name": "setProposalThreshold",
      "outputs": [],
      "stateMutability": "nonpayable",
      "type": "function"
    },
    {
      "inputs": [
        {
          "internalType": "uint48",
          "name": "newVotingDelay",
          "type": "uint48"
        }
      ],
      "name": "setVotingDelay",
      "outputs": [],
      "stateMutability": "nonpayable",
      "type": "function"
    },
    {
      "inputs": [
        {
          "internalType": "uint32",
          "name": "newVotingPeriod",
          "type": "uint32"
        }
      ],
      "name": "setVotingPeriod",
      "outputs": [],
      "stateMutability": "nonpayable",
      "type": "function"
    },
    {
      "inputs": [
        {
          "internalType": "uint256",
          "name": "proposalId",
          "type": "uint256"
        }
      ],
      "name": "state",
      "outputs": [
        {
          "internalType": "enum IGovernor.ProposalState",
          "name": "",
          "type": "uint8"
        }
      ],
      "stateMutability": "view",
      "type": "function"
    },
    {
      "inputs": [
        {
          "internalType": "bytes4",
          "name": "interfaceId",
          "type": "bytes4"
        }
      ],
      "name": "supportsInterface",
      "outputs": [
        {
          "internalType": "bool",
          "name": "",
          "type": "bool"
        }
      ],
      "stateMutability": "view",
      "type": "function"
    },
    {
      "inputs": [],
      "name": "timelock",
      "outputs": [
        {
          "internalType": "address",
          "name": "",
          "type": "address"
        }
      ],
      "stateMutability": "view",
      "type": "function"
    },
    {
      "inputs": [],
      "name": "token",
      "outputs": [
        {
          "internalType": "contract IERC5805",
          "name": "",
          "type": "address"
        }
      ],
      "stateMutability": "view",
      "type": "function"
    },
    {
      "inputs": [
        {
          "internalType": "uint256",
          "name": "newQuorumNumerator",
          "type": "uint256"
        }
      ],
      "name": "updateQuorumNumerator",
      "outputs": [],
      "stateMutability": "nonpayable",
      "type": "function"
    },
    {
      "inputs": [
        {
          "internalType": "contract TimelockController",
          "name": "newTimelock",
          "type": "address"
        }
      ],
      "name": "updateTimelock",
      "outputs": [],
      "stateMutability": "nonpayable",
      "type": "function"
    },
    {
      "inputs": [],
      "name": "version",
      "outputs": [
        {
          "internalType": "string",
          "name": "",
          "type": "string"
        }
      ],
      "stateMutability": "view",
      "type": "function"
    },
    {
      "inputs": [],
      "name": "votingDelay",
      "outputs": [
        {
          "internalType": "uint256",
          "name": "",
          "type": "uint256"
        }
      ],
      "stateMutability": "view",
      "type": "function"
    },
    {
      "inputs": [],
      "name": "votingPeriod",
      "outputs": [
        {
          "internalType": "uint256",
          "name": "",
          "type": "uint256"
        }
      ],
      "stateMutability": "view",
      "type": "function"
    },
    {
      "stateMutability": "payable",
      "type": "receive"
    }
  ],
  "transactionHash": "0xcd6454f31cb1272b216d4d7eb5352c99c8a74b7ab3c3998864727f3dce11f6e0",
  "args": [
    "0x5FbDB2315678afecb367f032d93F642f64180aa3",
    "0x9fE46736679d2D9a65F0992F2272dE9f3c7fa6e0",
    1,
    5,
    0
  ],
  "numDeployments": 1,
  "solcInputHash": "7628e47f6361722c910869ccebfff293",
  "bytecode": "0x6101806040523480156200001257600080fd5b50604051620052f8380380620052f8833981016040819052620000359162000869565b836006868585856040518060400160405280600a81526020016926bca3b7bb32b93737b960b11b81525080620000706200018a60201b60201c565b6200007d826000620001a5565b610120526200008e816001620001a5565b61014052815160208084019190912060e052815190820120610100524660a0526200011c60e05161010051604080517f8b73c3c69bb8fe3d512ecc4cf759cc79239f7b179b0ffacaa9a75d522b39400f60208201529081019290925260608201524660808201523060a082015260009060c00160405160208183030381529060405280519060200120905090565b60805250503060c052600362000133828262000988565b5062000141905083620001de565b6200014c8262000244565b6200015781620002eb565b5050506001600160a01b03166101605262000172816200032c565b506200017e81620003cc565b50505050505062000b0a565b6040805180820190915260018152603160f81b602082015290565b6000602083511015620001c557620001bd8362000435565b9050620001d8565b81620001d2848262000988565b5060ff90505b92915050565b6008546040805165ffffffffffff928316815291831660208301527fc565b045403dc03c2eea82b81a0465edad9e2e7fc4d97e11421c209da93d7a93910160405180910390a16008805465ffffffffffff191665ffffffffffff92909216919091179055565b8063ffffffff16600003620002745760405163f1cfbf0560e01b8152600060048201526024015b60405180910390fd5b6008546040805163ffffffff66010000000000009093048316815291831660208301527f7e3f7f0708a84de9203036abaa450dccc85ad5ff52f78c170f3edb55cf5e8828910160405180910390a16008805463ffffffff90921666010000000000000263ffffffff60301b19909216919091179055565b60075460408051918252602082018390527fccb45da8d5717e6c4544694297c4ba5cf151d455c9bb0ed4fc7a38411bc05461910160405180910390a1600755565b6064808211156200035b5760405163243e544560e01b815260048101839052602481018290526044016200026b565b60006200036762000478565b90506200038c6200037762000494565b62000382856200053c565b600a919062000576565b505060408051828152602081018590527f0553476bf02ef2726e8ce5ced78d63e26e602e4a2257b1f559418e24b4633997910160405180910390a1505050565b600b54604080516001600160a01b03928316815291831660208301527f08f74ea46ef7894f65eabfb5e6e695de773a000b47c529ab559178069b226401910160405180910390a1600b80546001600160a01b0319166001600160a01b0392909216919091179055565b600080829050601f8151111562000463578260405163305a27a960e01b81526004016200026b919062000a54565b8051620004708262000aa5565b179392505050565b600062000486600a62000593565b6001600160d01b0316905090565b6000620004a16101605190565b6001600160a01b03166391ddadf46040518163ffffffff1660e01b8152600401602060405180830381865afa925050508015620004fd575060408051601f3d908101601f19168201909252620004fa9181019062000aca565b60015b62000511576200050c620005e3565b905090565b6040805180820190915260048152637775786960e01b60208201526200053790620005f0565b919050565b60006001600160d01b0382111562000572576040516306dfcc6560e41b815260d06004820152602481018390526044016200026b565b5090565b600080620005868585856200063e565b915091505b935093915050565b80546000908015620005d957620005bf83620005b160018462000ae8565b600091825260209091200190565b54660100000000000090046001600160d01b0316620005dc565b60005b9392505050565b60006200050c43620007d0565b6200063b8160405160240162000607919062000a54565b60408051601f198184030181529190526020810180516001600160e01b0390811663104c13eb60e21b179091526200080516565b50565b825460009081908015620007715760006200066087620005b160018562000ae8565b60408051808201909152905465ffffffffffff80821680845266010000000000009092046001600160d01b031660208401529192509087161015620006b857604051632520601d60e01b815260040160405180910390fd5b805165ffffffffffff8088169116036200070c5784620006df88620005b160018662000ae8565b80546001600160d01b039290921666010000000000000265ffffffffffff90921691909117905562000760565b6040805180820190915265ffffffffffff80881682526001600160d01b0380881660208085019182528b54600181018d5560008d815291909120945191519092166601000000000000029216919091179101555b6020015192508391506200058b9050565b50506040805180820190915265ffffffffffff80851682526001600160d01b0380851660208085019182528854600181018a5560008a81529182209551925190931666010000000000000291909316179201919091559050816200058b565b600065ffffffffffff82111562000572576040516306dfcc6560e41b815260306004820152602481018390526044016200026b565b6200063b816200081b60201b6200146d1760201c565b60006a636f6e736f6c652e6c6f679050600080835160208501845afa505050565b6001600160a01b03811681146200063b57600080fd5b805165ffffffffffff811681146200053757600080fd5b600080600080600060a086880312156200088257600080fd5b85516200088f816200083c565b6020870151909550620008a2816200083c565b9350620008b26040870162000852565b9250606086015163ffffffff81168114620008cc57600080fd5b80925050608086015190509295509295909350565b634e487b7160e01b600052604160045260246000fd5b600181811c908216806200090c57607f821691505b6020821081036200092d57634e487b7160e01b600052602260045260246000fd5b50919050565b601f82111562000983576000816000526020600020601f850160051c810160208610156200095e5750805b601f850160051c820191505b818110156200097f578281556001016200096a565b5050505b505050565b81516001600160401b03811115620009a457620009a4620008e1565b620009bc81620009b58454620008f7565b8462000933565b602080601f831160018114620009f45760008415620009db5750858301515b600019600386901b1c1916600185901b1785556200097f565b600085815260208120601f198616915b8281101562000a255788860151825594840194600190910190840162000a04565b508582101562000a445787850151600019600388901b60f8161c191681555b5050505050600190811b01905550565b60006020808352835180602085015260005b8181101562000a845785810183015185820160400152820162000a66565b506000604082860101526040601f19601f8301168501019250505092915050565b805160208083015191908110156200092d5760001960209190910360031b1b16919050565b60006020828403121562000add57600080fd5b620005dc8262000852565b81810381811115620001d857634e487b7160e01b600052601160045260246000fd5b60805160a05160c05160e0516101005161012051610140516101605161477362000b85600039600081816109de01528181610cf30152818161119f015261203d01526000611db701526000611d8a01526000612712015260006126ea015260006126450152600061266f0152600061269901526147736000f3fe6080604052600436106102975760003560e01c80637ecebe001161015a578063c01f9e37116100c1578063e540d01d1161007a578063e540d01d1461092f578063eb9019d41461094f578063ece40cc11461096f578063f23a6e611461098f578063f8ce560a146109af578063fc0c546a146109cf57600080fd5b8063c01f9e3714610844578063c28bc2fa14610864578063c59057e414610877578063d33219b414610897578063dd4e2ba5146108b5578063deaaa7cc146108fb57600080fd5b8063a7713a7011610113578063a7713a7014610782578063a890c91014610797578063a9a95294146107b7578063ab58fb8e146107d7578063b58131b01461080f578063bc197c811461082457600080fd5b80637ecebe00146106a457806384b0196e146106da5780638ff262e31461070257806391ddadf41461072257806397c3d3341461074e5780639a802a6d1461076257600080fd5b806343859632116101fe5780635b8d0e0d116101b75780635b8d0e0d146105e45780635f398a141461060457806360c4247f1461062457806379051887146106445780637b3c71d3146106645780637d5e81e21461068457600080fd5b806343859632146104c6578063452115d6146105105780634bf5d7e914610530578063544ffc9c1461054557806354fd4d501461059a57806356781388146105c457600080fd5b8063160cbed711610250578063160cbed7146103fd5780632656227d1461041d5780632d63f693146104305780632fe3e261146104505780633932abb1146104845780633e4f49e61461049957600080fd5b806301ffc9a7146102d357806302a251a31461030857806306f3f9e61461033457806306fdde0314610354578063143489d014610376578063150b7a02146103c457600080fd5b366102ce57306102a5610a02565b6001600160a01b0316146102cc57604051637485328f60e11b815260040160405180910390fd5b005b600080fd5b3480156102df57600080fd5b506102f36102ee366004613635565b610a1b565b60405190151581526020015b60405180910390f35b34801561031457600080fd5b50600854600160301b900463ffffffff165b6040519081526020016102ff565b34801561034057600080fd5b506102cc61034f36600461365f565b610a6d565b34801561036057600080fd5b50610369610a81565b6040516102ff91906136c8565b34801561038257600080fd5b506103ac61039136600461365f565b6000908152600460205260409020546001600160a01b031690565b6040516001600160a01b0390911681526020016102ff565b3480156103d057600080fd5b506103e46103df3660046137bb565b610b13565b6040516001600160e01b031990911681526020016102ff565b34801561040957600080fd5b5061032661041836600461399a565b610b56565b61032661042b36600461399a565b610c25565b34801561043c57600080fd5b5061032661044b36600461365f565b610c3c565b34801561045c57600080fd5b506103267f3e83946653575f9a39005e1545185629e92736b7528ab20ca3816f315424a81181565b34801561049057600080fd5b50610326610c5d565b3480156104a557600080fd5b506104b96104b436600461365f565b610c70565b6040516102ff9190613a61565b3480156104d257600080fd5b506102f36104e1366004613a6f565b60008281526009602090815260408083206001600160a01b038516845260030190915290205460ff1692915050565b34801561051c57600080fd5b5061032661052b36600461399a565b610c7b565b34801561053c57600080fd5b50610369610cef565b34801561055157600080fd5b5061057f61056036600461365f565b6000908152600960205260409020805460018201546002909201549092565b604080519384526020840192909252908201526060016102ff565b3480156105a657600080fd5b506040805180820190915260018152603160f81b6020820152610369565b3480156105d057600080fd5b506103266105df366004613ab0565b610db1565b3480156105f057600080fd5b506103266105ff366004613b24565b610dda565b34801561061057600080fd5b5061032661061f366004613bde565b610f39565b34801561063057600080fd5b5061032661063f36600461365f565b610f8e565b34801561065057600080fd5b506102cc61065f366004613c75565b61101c565b34801561067057600080fd5b5061032661067f366004613c92565b61102d565b34801561069057600080fd5b5061032661069f366004613ceb565b611075565b3480156106b057600080fd5b506103266106bf366004613d9f565b6001600160a01b031660009081526002602052604090205490565b3480156106e657600080fd5b506106ef611083565b6040516102ff9796959493929190613df8565b34801561070e57600080fd5b5061032661071d366004613e68565b6110c9565b34801561072e57600080fd5b5061073761119b565b60405165ffffffffffff90911681526020016102ff565b34801561075a57600080fd5b506064610326565b34801561076e57600080fd5b5061032661077d366004613eb9565b611248565b34801561078e57600080fd5b50610326611251565b3480156107a357600080fd5b506102cc6107b2366004613d9f565b61126b565b3480156107c357600080fd5b506102f36107d236600461365f565b61127c565b3480156107e357600080fd5b506103266107f236600461365f565b60009081526004602052604090206001015465ffffffffffff1690565b34801561081b57600080fd5b50610326611285565b34801561083057600080fd5b506103e461083f366004613f11565b61128f565b34801561085057600080fd5b5061032661085f36600461365f565b6112d3565b6102cc610872366004613fa4565b611316565b34801561088357600080fd5b5061032661089236600461399a565b611396565b3480156108a357600080fd5b50600b546001600160a01b03166103ac565b3480156108c157600080fd5b506040805180820190915260208082527f737570706f72743d627261766f2671756f72756d3d666f722c6162737461696e90820152610369565b34801561090757600080fd5b506103267ff2aad550cf55f045cb27e9c559f9889fdfb6e6cdaa032301d6ea397784ae51d781565b34801561093b57600080fd5b506102cc61094a366004613fe7565b6113d0565b34801561095b57600080fd5b5061032661096a36600461400d565b6113e1565b34801561097b57600080fd5b506102cc61098a36600461365f565b61140d565b34801561099b57600080fd5b506103e46109aa366004614039565b61141e565b3480156109bb57600080fd5b506103266109ca36600461365f565b611462565b3480156109db57600080fd5b507f00000000000000000000000000000000000000000000000000000000000000006103ac565b6000610a16600b546001600160a01b031690565b905090565b60006001600160e01b031982166332a2ad4360e11b1480610a4c57506001600160e01b03198216630271189760e51b145b80610a6757506301ffc9a760e01b6001600160e01b03198316145b92915050565b610a7561148e565b610a7e81611508565b50565b606060038054610a90906140a1565b80601f0160208091040260200160405190810160405280929190818152602001828054610abc906140a1565b8015610b095780601f10610ade57610100808354040283529160200191610b09565b820191906000526020600020905b815481529060010190602001808311610aec57829003601f168201915b5050505050905090565b600030610b1e610a02565b6001600160a01b031614610b4557604051637485328f60e11b815260040160405180910390fd5b50630a85bd0160e11b949350505050565b600080610b6586868686611396565b9050610b7a81610b75600461159e565b6115c1565b506000610b8a8288888888611600565b905065ffffffffffff811615610c0257600082815260046020908152604091829020600101805465ffffffffffff191665ffffffffffff85169081179091558251858152918201527f9a2e42fd6722813d69113e7d0079d3d940171428df7373df9c7f7617cfda2892910160405180910390a1610c1b565b604051634844252360e11b815260040160405180910390fd5b5095945050505050565b6000610c338585858561160f565b95945050505050565b600090815260046020526040902054600160a01b900465ffffffffffff1690565b6000610a1660085465ffffffffffff1690565b6000610a678261177b565b600080610c8a86868686611396565b9050610c9a81610b75600061159e565b506000818152600460205260409020546001600160a01b03163314610cd95760405163233d98e360e01b81523360048201526024015b60405180910390fd5b610ce5868686866118ba565b9695505050505050565b60607f00000000000000000000000000000000000000000000000000000000000000006001600160a01b0316634bf5d7e96040518163ffffffff1660e01b8152600401600060405180830381865afa925050508015610d7057506040513d6000823e601f3d908101601f19168201604052610d6d91908101906140db565b60015b610dac575060408051808201909152601d81527f6d6f64653d626c6f636b6e756d6265722666726f6d3d64656661756c74000000602082015290565b919050565b600080339050610dd2848285604051806020016040528060008152506118c8565b949350505050565b600080610ebd87610eb77f3e83946653575f9a39005e1545185629e92736b7528ab20ca3816f315424a8118c8c8c610e2f8e6001600160a01b0316600090815260026020526040902080546001810190915590565b8d8d604051610e3f929190614148565b60405180910390208c80519060200120604051602001610e9c9796959493929190968752602087019590955260ff9390931660408601526001600160a01b03919091166060850152608084015260a083015260c082015260e00190565b604051602081830303815290604052805190602001206118eb565b85611918565b905080610ee8576040516394ab6c0760e01b81526001600160a01b0388166004820152602401610cd0565b610f2c89888a89898080601f0160208091040260200160405190810160405280939291908181526020018383808284376000920191909152508b9250611970915050565b9998505050505050505050565b600080339050610f8387828888888080601f0160208091040260200160405190810160405280939291908181526020018383808284376000920191909152508a9250611970915050565b979650505050505050565b600a80546000918290610fa260018461416e565b81548110610fb257610fb2614181565b6000918252602090912001805490915065ffffffffffff811690600160301b90046001600160d01b0316858211610ff5576001600160d01b031695945050505050565b61100961100187611b4f565b600a90611b86565b6001600160d01b03169695505050505050565b61102461148e565b610a7e81611c3b565b600080339050610ce586828787878080601f0160208091040260200160405190810160405280939291908181526020018383808284376000920191909152506118c892505050565b6000610c3385858585611ca1565b600060608060008060006060611097611d83565b61109f611db0565b60408051600080825260208201909252600f60f81b9b939a50919850469750309650945092509050565b60008061115584610eb77ff2aad550cf55f045cb27e9c559f9889fdfb6e6cdaa032301d6ea397784ae51d789898961111e8b6001600160a01b0316600090815260026020526040902080546001810190915590565b60408051602081019690965285019390935260ff90911660608401526001600160a01b0316608083015260a082015260c001610e9c565b905080611180576040516394ab6c0760e01b81526001600160a01b0385166004820152602401610cd0565b610ce5868587604051806020016040528060008152506118c8565b60007f00000000000000000000000000000000000000000000000000000000000000006001600160a01b03166391ddadf46040518163ffffffff1660e01b8152600401602060405180830381865afa925050508015611217575060408051601f3d908101601f1916820190925261121491810190614197565b60015b61122357610a16611ddd565b610dac604051806040016040528060048152602001637775786960e01b815250611de8565b6000600a610dd2565b600061125d600a611e2b565b6001600160d01b0316905090565b61127361148e565b610a7e81611e64565b60006001610a67565b6000610a16611ecd565b60003061129a610a02565b6001600160a01b0316146112c157604051637485328f60e11b815260040160405180910390fd5b5063bc197c8160e01b95945050505050565b60008181526004602052604081205461130890600160d01b810463ffffffff1690600160a01b900465ffffffffffff166141b4565b65ffffffffffff1692915050565b61131e61148e565b600080856001600160a01b031685858560405161133c929190614148565b60006040518083038185875af1925050503d8060008114611379576040519150601f19603f3d011682016040523d82523d6000602084013e61137e565b606091505b509150915061138d8282611f17565b50505050505050565b6000848484846040516020016113af949392919061426e565b60408051601f19818403018152919052805160209091012095945050505050565b6113d861148e565b610a7e81611f33565b600061140683836113fd60408051602081019091526000815290565b600a9392505050565b9392505050565b61141561148e565b610a7e81611fd1565b600030611429610a02565b6001600160a01b03161461145057604051637485328f60e11b815260040160405180910390fd5b5063f23a6e6160e01b95945050505050565b6000610a6782612012565b60006a636f6e736f6c652e6c6f679050600080835160208501845afa505050565b33611497610a02565b6001600160a01b0316146114c0576040516347096e4760e01b8152336004820152602401610cd0565b306114c9610a02565b6001600160a01b03161461150657600080366040516114e9929190614148565b604051809103902090505b806114ff60056120bc565b036114f457505b565b6064808211156115355760405163243e544560e01b81526004810183905260248101829052604401610cd0565b600061153f611251565b905061155e61154c61119b565b6115558561213a565b600a919061216e565b505060408051828152602081018590527f0553476bf02ef2726e8ce5ced78d63e26e602e4a2257b1f559418e24b4633997910160405180910390a1505050565b60008160078111156115b2576115b2613a29565b600160ff919091161b92915050565b6000806115cd84610c70565b90506000836115db8361159e565b1603611406578381846040516331b75e4d60e01b8152600401610cd0939291906142b9565b6000610ce58686868686612189565b60008061161e86868686611396565b905061163e8161162e600561159e565b611638600461159e565b176115c1565b506000818152600460205260409020805460ff60f01b1916600160f01b17905530611667610a02565b6001600160a01b0316146116f15760005b86518110156116ef57306001600160a01b031687828151811061169d5761169d614181565b60200260200101516001600160a01b0316036116e7576116e78582815181106116c8576116c8614181565b602002602001015180519060200120600561232890919063ffffffff16565b600101611678565b505b6116fe8187878787612399565b30611707610a02565b6001600160a01b03161415801561173357506005546001600160801b03808216600160801b9092041614155b1561173e5760006005555b6040518181527f712ae1383f79ac853f8d882153778e0260ef8f03b504e2866e0593e04d2b291f906020015b60405180910390a195945050505050565b600080611787836123ad565b9050600581600781111561179d5761179d613a29565b146117a85792915050565b6000838152600c60205260409081902054600b549151632c258a9f60e11b81526004810182905290916001600160a01b03169063584b153e90602401602060405180830381865afa158015611801573d6000803e3d6000fd5b505050506040513d601f19601f8201168201806040525081019061182591906142db565b15611834575060059392505050565b600b54604051632ab0f52960e01b8152600481018390526001600160a01b0390911690632ab0f52990602401602060405180830381865afa15801561187d573d6000803e3d6000fd5b505050506040513d601f19601f820116820180604052508101906118a191906142db565b156118b0575060079392505050565b5060029392505050565b6000610c3385858585612599565b6000610c33858585856118e660408051602081019091526000815290565b611970565b6000610a676118f8612638565b8360405161190160f01b8152600281019290925260228201526042902090565b60008060006119278585612763565b509092509050600081600381111561194157611941613a29565b14801561195f5750856001600160a01b0316826001600160a01b0316145b80610ce55750610ce58686866127b0565b60006119b06040518060400160405280601e81526020017f3d3d3d3d3d3d3d3d3d3d3d3d3d3d3d3d3d3d3d3d3d3d3d3d3d3d3d3d3d3d0000815250611de8565b6119dd6040518060400160405280600b81526020016a383937b837b9b0b624b21d60a91b8152508761288b565b611a076040518060400160405280600881526020016730b1b1b7bab73a1d60c11b815250866128d4565b611a346040518060400160405280600881526020016739bab83837b93a1d60c11b8152508560ff1661288b565b611a726040518060400160405280601e81526020017f3d3d3d3d3d3d3d3d3d3d3d3d3d3d3d3d3d3d3d3d3d3d3d3d3d3d3d3d3d3d0000815250611de8565b611a8086610b75600161159e565b506000611a9886611a9089610c3c565b50600a919050565b9050611aa78787878487612919565b8251600003611afc57856001600160a01b03167fb8e138887d0aa13bab447e82de9d5c1777041ecd21ca36ba824ff1e6c07ddda488878488604051611aef94939291906142fd565b60405180910390a2610ce5565b856001600160a01b03167fe2babfbac5889a709b63bb7f598b324e08bc5a4fb9ec647fb3cbc9ec07eb87128887848888604051611b3d959493929190614325565b60405180910390a29695505050505050565b600065ffffffffffff821115611b82576040516306dfcc6560e41b81526030600482015260248101839052604401610cd0565b5090565b815460009081816005811115611be5576000611ba184612a1a565b611bab908561416e565b60008881526020902090915081015465ffffffffffff9081169087161015611bd557809150611be3565b611be081600161435f565b92505b505b6000611bf387878585612b02565b90508015611c2e57611c1887611c0a60018461416e565b600091825260209091200190565b54600160301b90046001600160d01b0316610f83565b6000979650505050505050565b6008546040805165ffffffffffff928316815291831660208301527fc565b045403dc03c2eea82b81a0465edad9e2e7fc4d97e11421c209da93d7a93910160405180910390a16008805465ffffffffffff191665ffffffffffff92909216919091179055565b6000611cc860405180604001604052806004815260200163316f6e6560e01b815250611de8565b33611cd38184612b64565b611cfb5760405163d9b3955760e01b81526001600160a01b0382166004820152602401610cd0565b6000611d22826001611d0b61119b565b611d159190614372565b65ffffffffffff166113e1565b90506000611d2e611285565b905080821015611d6a57604051636121770b60e11b81526001600160a01b03841660048201526024810183905260448101829052606401610cd0565b611d778888888887612c4f565b98975050505050505050565b6060610a167f00000000000000000000000000000000000000000000000000000000000000006000612eaf565b6060610a167f00000000000000000000000000000000000000000000000000000000000000006001612eaf565b6000610a1643611b4f565b610a7e81604051602401611dfc91906136c8565b60408051601f198184030181529190526020810180516001600160e01b031663104c13eb60e21b179052612f5a565b80546000908015611e5b57611e4583611c0a60018461416e565b54600160301b90046001600160d01b0316611406565b60009392505050565b600b54604080516001600160a01b03928316815291831660208301527f08f74ea46ef7894f65eabfb5e6e695de773a000b47c529ab559178069b226401910160405180910390a1600b80546001600160a01b0319166001600160a01b0392909216919091179055565b6000611f106040518060400160405280601781526020017f5f70726f706f73616c5468726573686f6c64206973203a00000000000000000081525060075461288b565b5060075490565b606082611f2c57611f2782612f63565b610a67565b5080610a67565b8063ffffffff16600003611f5d5760405163f1cfbf0560e01b815260006004820152602401610cd0565b6008546040805163ffffffff600160301b9093048316815291831660208301527f7e3f7f0708a84de9203036abaa450dccc85ad5ff52f78c170f3edb55cf5e8828910160405180910390a16008805463ffffffff909216600160301b0269ffffffff00000000000019909216919091179055565b60075460408051918252602082018390527fccb45da8d5717e6c4544694297c4ba5cf151d455c9bb0ed4fc7a38411bc05461910160405180910390a1600755565b6000606461201f83610f8e565b604051632394e7a360e21b8152600481018590526001600160a01b037f00000000000000000000000000000000000000000000000000000000000000001690638e539e8c90602401602060405180830381865afa158015612084573d6000803e3d6000fd5b505050506040513d601f19601f820116820180604052508101906120a89190614391565b6120b291906143aa565b610a6791906143d7565b80546000906001600160801b0380821691600160801b90041681036120f4576040516375e52f4f60e01b815260040160405180910390fd5b6001600160801b038181166000908152600185810160205260408220805492905585546fffffffffffffffffffffffffffffffff19169301909116919091179092555090565b60006001600160d01b03821115611b82576040516306dfcc6560e41b815260d0600482015260248101839052604401610cd0565b60008061217c858585612f8c565b915091505b935093915050565b600080600b60009054906101000a90046001600160a01b03166001600160a01b031663f27a0c926040518163ffffffff1660e01b8152600401602060405180830381865afa1580156121df573d6000803e3d6000fd5b505050506040513d601f19601f820116820180604052508101906122039190614391565b905060003060601b6bffffffffffffffffffffffff19168418600b5460405163b1c5f42760e01b81529192506001600160a01b03169063b1c5f42790612256908a908a908a9060009088906004016143f9565b602060405180830381865afa158015612273573d6000803e3d6000fd5b505050506040513d601f19601f820116820180604052508101906122979190614391565b6000898152600c602052604080822092909255600b5491516308f2a0bb60e41b81526001600160a01b0390921691638f2a0bb0916122e2918b918b918b919088908a90600401614447565b600060405180830381600087803b1580156122fc57600080fd5b505af1158015612310573d6000803e3d6000fd5b50505050611d778242612323919061435f565b611b4f565b81546001600160801b03600160801b82048116918116600183019091160361236357604051638acb5f2760e01b815260040160405180910390fd5b6001600160801b03808216600090815260018086016020526040909120939093558354919092018216600160801b029116179055565b6123a68585858585613106565b5050505050565b6000818152600460205260408120805460ff600160f01b8204811691600160f81b90041681156123e257506007949350505050565b80156123f357506002949350505050565b60006123fe86610c3c565b90508060000361242457604051636ad0607560e01b815260048101879052602401610cd0565b600061242e61119b565b65ffffffffffff16905080821061244c575060009695505050505050565b6000612457886112d3565b90506124a06040518060400160405280601b81526020017f5f71756f72756d526561636865642870726f706f73616c4964293a000000000081525061249b8a61319c565b6131d3565b6124e26040518060400160405280601b81526020017f5f766f74655375636365656465642870726f706f73616c4964293a000000000081525061249b8a613218565b8181106124f757506001979650505050505050565b6125008861319c565b1580612512575061251088613218565b155b1561255c5761254e604051806040016040528060128152602001712fbb37ba32a9bab1b1b2b2b232b21034b99d60711b81525061249b8a613218565b506003979650505050505050565b60008881526004602052604090206001015465ffffffffffff1660000361258b57506004979650505050505050565b506005979650505050505050565b6000806125a8868686866132be565b6000818152600c60205260409020549091508015610c1b57600b5460405163c4d252f560e01b8152600481018390526001600160a01b039091169063c4d252f590602401600060405180830381600087803b15801561260657600080fd5b505af115801561261a573d6000803e3d6000fd5b5050506000838152600c602052604081205550509050949350505050565b6000306001600160a01b037f00000000000000000000000000000000000000000000000000000000000000001614801561269157507f000000000000000000000000000000000000000000000000000000000000000046145b156126bb57507f000000000000000000000000000000000000000000000000000000000000000090565b610a16604080517f8b73c3c69bb8fe3d512ecc4cf759cc79239f7b179b0ffacaa9a75d522b39400f60208201527f0000000000000000000000000000000000000000000000000000000000000000918101919091527f000000000000000000000000000000000000000000000000000000000000000060608201524660808201523060a082015260009060c00160405160208183030381529060405280519060200120905090565b6000806000835160410361279d5760208401516040850151606086015160001a61278f8882858561336f565b9550955095505050506127a9565b50508151600091506002905b9250925092565b6000806000856001600160a01b031685856040516024016127d292919061449f565b60408051601f198184030181529181526020820180516001600160e01b0316630b135d3f60e11b1790525161280791906144b8565b600060405180830381855afa9150503d8060008114612842576040519150601f19603f3d011682016040523d82523d6000602084013e612847565b606091505b509150915081801561285b57506020815110155b8015610ce557508051630b135d3f60e11b906128809083016020908101908401614391565b149695505050505050565b6128d082826040516024016128a19291906144d4565b60408051601f198184030181529190526020810180516001600160e01b0316632d839cb360e21b179052612f5a565b5050565b6128d082826040516024016128ea9291906144f6565b60408051601f198184030181529190526020810180516001600160e01b031663319af33360e01b179052612f5a565b60008581526009602090815260408083206001600160a01b0388168452600381019092529091205460ff161561296d576040516371c6af4960e01b81526001600160a01b0386166004820152602401610cd0565b6001600160a01b03851660009081526003820160205260409020805460ff1916600117905560ff84166129b957828160000160008282546129ae919061435f565b90915550612a129050565b60001960ff8516016129d957828160010160008282546129ae919061435f565b60011960ff8516016129f957828160020160008282546129ae919061435f565b6040516303599be160e11b815260040160405180910390fd5b505050505050565b600081600003612a2c57506000919050565b60006001612a398461343e565b901c6001901b90506001818481612a5257612a526143c1565b048201901c90506001818481612a6a57612a6a6143c1565b048201901c90506001818481612a8257612a826143c1565b048201901c90506001818481612a9a57612a9a6143c1565b048201901c90506001818481612ab257612ab26143c1565b048201901c90506001818481612aca57612aca6143c1565b048201901c90506001818481612ae257612ae26143c1565b048201901c905061140681828581612afc57612afc6143c1565b046134d2565b60005b81831015612b5c576000612b1984846134e8565b60008781526020902090915065ffffffffffff86169082015465ffffffffffff161115612b4857809250612b56565b612b5381600161435f565b93505b50612b05565b509392505050565b80516000906034811015612b7c576001915050610a67565b82810160131901516001600160a01b031981166b046e0e4dee0dee6cae47a60f60a31b14612baf57600192505050610a67565b600080612bbd60288561416e565b90505b83811015612c2e57600080612bf4888481518110612be057612be0614181565b01602001516001600160f81b031916613503565b9150915081612c0c5760019650505050505050610a67565b8060ff166004856001600160a01b0316901b1793505050806001019050612bc0565b50856001600160a01b0316816001600160a01b031614935050505092915050565b6000612c648686868680519060200120611396565b9050612c89604051806040016040528060028152602001611b1b60f11b815250611de8565b84518651141580612c9c57508351865114155b80612ca657508551155b15612cdb57855184518651604051630447b05d60e41b8152600481019390935260248301919091526044820152606401610cd0565b600081815260046020526040902054600160a01b900465ffffffffffff1615612d265780612d0882610c70565b6040516331b75e4d60e01b8152610cd09291906000906004016142b9565b6000612d30610c5d565b612d3861119b565b65ffffffffffff16612d4a919061435f565b90506000612d6560085463ffffffff600160301b9091041690565b600084815260046020526040902080546001600160a01b0319166001600160a01b038716178155909150612d9883611b4f565b815465ffffffffffff91909116600160a01b0265ffffffffffff60a01b19909116178155612dc582613595565b815463ffffffff91909116600160d01b0263ffffffff60d01b19909116178155604080518082019091526002815261373760f01b6020820152612e0790611de8565b7f7d84a6263ae0d98d3329bd7b46bb4e8d6f98cd35a7adb45c274c8b7fd5ebd5e084868b8b8d516001600160401b03811115612e4557612e456136f0565b604051908082528060200260200182016040528015612e7857816020015b6060815260200190600190039081612e635790505b508c89612e858a8261435f565b8e604051612e9b99989796959493929190614520565b60405180910390a150505095945050505050565b606060ff8314612ec957612ec2836135c6565b9050610a67565b818054612ed5906140a1565b80601f0160208091040260200160405190810160405280929190818152602001828054612f01906140a1565b8015612f4e5780601f10612f2357610100808354040283529160200191612f4e565b820191906000526020600020905b815481529060010190602001808311612f3157829003601f168201915b50505050509050610a67565b610a7e8161146d565b805115612f735780518082602001fd5b604051630a12f52160e11b815260040160405180910390fd5b8254600090819080156130ab576000612faa87611c0a60018561416e565b60408051808201909152905465ffffffffffff808216808452600160301b9092046001600160d01b031660208401529192509087161015612ffe57604051632520601d60e01b815260040160405180910390fd5b805165ffffffffffff80881691160361304a578461302188611c0a60018661416e565b80546001600160d01b0392909216600160301b0265ffffffffffff90921691909117905561309b565b6040805180820190915265ffffffffffff80881682526001600160d01b0380881660208085019182528b54600181018d5560008d81529190912094519151909216600160301b029216919091179101555b6020015192508391506121819050565b50506040805180820190915265ffffffffffff80851682526001600160d01b0380851660208085019182528854600181018a5560008a815291822095519251909316600160301b029190931617920191909155905081612181565b600b546001600160a01b031663e38335e53486868660003060601b6bffffffffffffffffffffffff191688186040518763ffffffff1660e01b81526004016131529594939291906143f9565b6000604051808303818588803b15801561316b57600080fd5b505af115801561317f573d6000803e3d6000fd5b50505060009687525050600c602052505060408320929092555050565b6000818152600960205260408120600281015460018201546131be919061435f565b6131ca6109ca85610c3c565b11159392505050565b6128d082826040516024016131e99291906145f7565b60408051601f198184030181529190526020810180516001600160e01b031663c3b5563560e01b179052612f5a565b60008181526009602090815260408083208151808301909252601a82527f70726f706f73616c566f74652e666f72566f746573206973203a00000000000092820192909252600182015461326c919061288b565b6132af6040518060400160405280601e81526020017f70726f706f73616c566f74652e616761696e7374566f746573206973203a0000815250826000015461288b565b80546001909101541192915050565b6000806132cd86868686611396565b905061331b816132dd600761159e565b6132e7600661159e565b6132f1600261159e565b60016132fe60078261461b565b613309906002614718565b613313919061416e565b1818186115c1565b506000818152600460205260409081902080546001600160f81b0316600160f81b179055517f789cf55be980739dad1d0699b93b58e806b51c9d96619bfa8fe0a28abaa7b30c9061176a9083815260200190565b600080807f7fffffffffffffffffffffffffffffff5d576e7357a4501ddfe92f46681b20a08411156133aa5750600091506003905082613434565b604080516000808252602082018084528a905260ff891692820192909252606081018790526080810186905260019060a0016020604051602081039080840390855afa1580156133fe573d6000803e3d6000fd5b5050604051601f1901519150506001600160a01b03811661342a57506000925060019150829050613434565b9250600091508190505b9450945094915050565b600080608083901c1561345357608092831c92015b604083901c1561346557604092831c92015b602083901c1561347757602092831c92015b601083901c1561348957601092831c92015b600883901c1561349b57600892831c92015b600483901c156134ad57600492831c92015b600283901c156134bf57600292831c92015b600183901c15610a675760010192915050565b60008183106134e15781611406565b5090919050565b60006134f760028484186143d7565b6114069084841661435f565b60008060f883901c602f8111801561351e5750603a8160ff16105b1561353357600194602f199091019350915050565b8060ff166040108015613549575060478160ff16105b1561355e576001946036199091019350915050565b8060ff166060108015613574575060678160ff16105b15613589576001946056199091019350915050565b50600093849350915050565b600063ffffffff821115611b82576040516306dfcc6560e41b81526020600482015260248101839052604401610cd0565b606060006135d383613605565b604080516020808252818301909252919250600091906020820181803683375050509182525060208101929092525090565b600060ff8216601f811115610a6757604051632cd44ac360e21b815260040160405180910390fd5b611506614727565b60006020828403121561364757600080fd5b81356001600160e01b03198116811461140657600080fd5b60006020828403121561367157600080fd5b5035919050565b60005b8381101561369357818101518382015260200161367b565b50506000910152565b600081518084526136b4816020860160208601613678565b601f01601f19169290920160200192915050565b602081526000611406602083018461369c565b6001600160a01b0381168114610a7e57600080fd5b634e487b7160e01b600052604160045260246000fd5b604051601f8201601f191681016001600160401b038111828210171561372e5761372e6136f0565b604052919050565b60006001600160401b0382111561374f5761374f6136f0565b50601f01601f191660200190565b600061377061376b84613736565b613706565b905082815283838301111561378457600080fd5b828260208301376000602084830101529392505050565b600082601f8301126137ac57600080fd5b6114068383356020850161375d565b600080600080608085870312156137d157600080fd5b84356137dc816136db565b935060208501356137ec816136db565b92506040850135915060608501356001600160401b0381111561380e57600080fd5b61381a8782880161379b565b91505092959194509250565b60006001600160401b0382111561383f5761383f6136f0565b5060051b60200190565b600082601f83011261385a57600080fd5b8135602061386a61376b83613826565b8083825260208201915060208460051b87010193508684111561388c57600080fd5b602086015b848110156138b15780356138a4816136db565b8352918301918301613891565b509695505050505050565b600082601f8301126138cd57600080fd5b813560206138dd61376b83613826565b8083825260208201915060208460051b8701019350868411156138ff57600080fd5b602086015b848110156138b15780358352918301918301613904565b600082601f83011261392c57600080fd5b8135602061393c61376b83613826565b82815260059290921b8401810191818101908684111561395b57600080fd5b8286015b848110156138b15780356001600160401b0381111561397e5760008081fd5b61398c8986838b010161379b565b84525091830191830161395f565b600080600080608085870312156139b057600080fd5b84356001600160401b03808211156139c757600080fd5b6139d388838901613849565b955060208701359150808211156139e957600080fd5b6139f5888389016138bc565b94506040870135915080821115613a0b57600080fd5b50613a188782880161391b565b949793965093946060013593505050565b634e487b7160e01b600052602160045260246000fd5b60088110613a5d57634e487b7160e01b600052602160045260246000fd5b9052565b60208101610a678284613a3f565b60008060408385031215613a8257600080fd5b823591506020830135613a94816136db565b809150509250929050565b803560ff81168114610dac57600080fd5b60008060408385031215613ac357600080fd5b82359150613ad360208401613a9f565b90509250929050565b60008083601f840112613aee57600080fd5b5081356001600160401b03811115613b0557600080fd5b602083019150836020828501011115613b1d57600080fd5b9250929050565b600080600080600080600060c0888a031215613b3f57600080fd5b87359650613b4f60208901613a9f565b95506040880135613b5f816136db565b945060608801356001600160401b0380821115613b7b57600080fd5b613b878b838c01613adc565b909650945060808a0135915080821115613ba057600080fd5b613bac8b838c0161379b565b935060a08a0135915080821115613bc257600080fd5b50613bcf8a828b0161379b565b91505092959891949750929550565b600080600080600060808688031215613bf657600080fd5b85359450613c0660208701613a9f565b935060408601356001600160401b0380821115613c2257600080fd5b613c2e89838a01613adc565b90955093506060880135915080821115613c4757600080fd5b50613c548882890161379b565b9150509295509295909350565b65ffffffffffff81168114610a7e57600080fd5b600060208284031215613c8757600080fd5b813561140681613c61565b60008060008060608587031215613ca857600080fd5b84359350613cb860208601613a9f565b925060408501356001600160401b03811115613cd357600080fd5b613cdf87828801613adc565b95989497509550505050565b60008060008060808587031215613d0157600080fd5b84356001600160401b0380821115613d1857600080fd5b613d2488838901613849565b95506020870135915080821115613d3a57600080fd5b613d46888389016138bc565b94506040870135915080821115613d5c57600080fd5b613d688883890161391b565b93506060870135915080821115613d7e57600080fd5b508501601f81018713613d9057600080fd5b61381a8782356020840161375d565b600060208284031215613db157600080fd5b8135611406816136db565b60008151808452602080850194506020840160005b83811015613ded57815187529582019590820190600101613dd1565b509495945050505050565b60ff60f81b8816815260e060208201526000613e1760e083018961369c565b8281036040840152613e29818961369c565b606084018890526001600160a01b038716608085015260a0840186905283810360c08501529050613e5a8185613dbc565b9a9950505050505050505050565b60008060008060808587031215613e7e57600080fd5b84359350613e8e60208601613a9f565b92506040850135613e9e816136db565b915060608501356001600160401b0381111561380e57600080fd5b600080600060608486031215613ece57600080fd5b8335613ed9816136db565b92506020840135915060408401356001600160401b03811115613efb57600080fd5b613f078682870161379b565b9150509250925092565b600080600080600060a08688031215613f2957600080fd5b8535613f34816136db565b94506020860135613f44816136db565b935060408601356001600160401b0380821115613f6057600080fd5b613f6c89838a016138bc565b94506060880135915080821115613f8257600080fd5b613f8e89838a016138bc565b93506080880135915080821115613c4757600080fd5b60008060008060608587031215613fba57600080fd5b8435613fc5816136db565b93506020850135925060408501356001600160401b03811115613cd357600080fd5b600060208284031215613ff957600080fd5b813563ffffffff8116811461140657600080fd5b6000806040838503121561402057600080fd5b823561402b816136db565b946020939093013593505050565b600080600080600060a0868803121561405157600080fd5b853561405c816136db565b9450602086013561406c816136db565b9350604086013592506060860135915060808601356001600160401b0381111561409557600080fd5b613c548882890161379b565b600181811c908216806140b557607f821691505b6020821081036140d557634e487b7160e01b600052602260045260246000fd5b50919050565b6000602082840312156140ed57600080fd5b81516001600160401b0381111561410357600080fd5b8201601f8101841361411457600080fd5b805161412261376b82613736565b81815285602083850101111561413757600080fd5b610c33826020830160208601613678565b8183823760009101908152919050565b634e487b7160e01b600052601160045260246000fd5b81810381811115610a6757610a67614158565b634e487b7160e01b600052603260045260246000fd5b6000602082840312156141a957600080fd5b815161140681613c61565b65ffffffffffff8181168382160190808211156141d3576141d3614158565b5092915050565b60008151808452602080850194506020840160005b83811015613ded5781516001600160a01b0316875295820195908201906001016141ef565b60008282518085526020808601955060208260051b8401016020860160005b8481101561426157601f1986840301895261424f83835161369c565b98840198925090830190600101614233565b5090979650505050505050565b60808152600061428160808301876141da565b82810360208401526142938187613dbc565b905082810360408401526142a78186614214565b91505082606083015295945050505050565b838152606081016142cd6020830185613a3f565b826040830152949350505050565b6000602082840312156142ed57600080fd5b8151801515811461140657600080fd5b84815260ff84166020820152826040820152608060608201526000610ce5608083018461369c565b85815260ff8516602082015283604082015260a06060820152600061434d60a083018561369c565b8281036080840152611d77818561369c565b80820180821115610a6757610a67614158565b65ffffffffffff8281168282160390808211156141d3576141d3614158565b6000602082840312156143a357600080fd5b5051919050565b8082028115828204841417610a6757610a67614158565b634e487b7160e01b600052601260045260246000fd5b6000826143f457634e487b7160e01b600052601260045260246000fd5b500490565b60a08152600061440c60a08301886141da565b828103602084015261441e8188613dbc565b905082810360408401526144328187614214565b60608401959095525050608001529392505050565b60c08152600061445a60c08301896141da565b828103602084015261446c8189613dbc565b905082810360408401526144808188614214565b60608401969096525050608081019290925260a0909101529392505050565b828152604060208201526000610dd2604083018461369c565b600082516144ca818460208701613678565b9190910192915050565b6040815260006144e7604083018561369c565b90508260208301529392505050565b604081526000614509604083018561369c565b905060018060a01b03831660208301529392505050565b60006101208b8352602060018060a01b038c16818501528160408501526145498285018c6141da565b9150838203606085015261455d828b613dbc565b915083820360808501528189518084528284019150828160051b850101838c0160005b838110156145ae57601f1987840301855261459c83835161369c565b94860194925090850190600101614580565b505086810360a08801526145c2818c614214565b9450505050508560c08401528460e08401528281036101008401526145e7818561369c565b9c9b505050505050505050505050565b60408152600061460a604083018561369c565b905082151560208301529392505050565b60ff8181168382160190811115610a6757610a67614158565b600181815b8085111561466f57816000190482111561465557614655614158565b8085161561466257918102915b93841c9390800290614639565b509250929050565b60008261468657506001610a67565b8161469357506000610a67565b81600181146146a957600281146146b3576146cf565b6001915050610a67565b60ff8411156146c4576146c4614158565b50506001821b610a67565b5060208310610133831016604e8410600b84101617156146f2575081810a610a67565b6146fc8383614634565b806000190482111561471057614710614158565b029392505050565b600061140660ff841683614677565b634e487b7160e01b600052605160045260246000fdfea2646970667358221220fe4c3a0a7ae9e6d8af4dec2ee2736643f2f981631d50fcf8d149f0a86e3fb13664736f6c63430008180033",
  "devdoc": {
    "errors": {
      "CheckpointUnorderedInsertion()": [
        {
          "details": "A value was attempted to be inserted on a past checkpoint."
        }
      ],
      "FailedInnerCall()": [
        {
          "details": "A call to an address target failed. The target may have reverted."
        }
      ],
      "GovernorAlreadyCastVote(address)": [
        {
          "details": "The vote was already cast."
        }
      ],
      "GovernorAlreadyQueuedProposal(uint256)": [
        {
          "details": "The proposal has already been queued."
        }
      ],
      "GovernorDisabledDeposit()": [
        {
          "details": "Token deposits are disabled in this contract."
        }
      ],
      "GovernorInsufficientProposerVotes(address,uint256,uint256)": [
        {
          "details": "The `proposer` does not have the required votes to create a proposal."
        }
      ],
      "GovernorInvalidProposalLength(uint256,uint256,uint256)": [
        {
          "details": "Empty proposal or a mismatch between the parameters length for a proposal call."
        }
      ],
      "GovernorInvalidQuorumFraction(uint256,uint256)": [
        {
          "details": "The quorum set is not a valid fraction."
        }
      ],
      "GovernorInvalidSignature(address)": [
        {
          "details": "The provided signature is not valid for the expected `voter`. If the `voter` is a contract, the signature is not valid using {IERC1271-isValidSignature}."
        }
      ],
      "GovernorInvalidVoteType()": [
        {
          "details": "The vote type used is not valid for the corresponding counting module."
        }
      ],
      "GovernorInvalidVotingPeriod(uint256)": [
        {
          "details": "The voting period set is not a valid period."
        }
      ],
      "GovernorNonexistentProposal(uint256)": [
        {
          "details": "The `proposalId` doesn't exist."
        }
      ],
      "GovernorNotQueuedProposal(uint256)": [
        {
          "details": "The proposal hasn't been queued yet."
        }
      ],
      "GovernorOnlyExecutor(address)": [
        {
          "details": "The `account` is not the governance executor."
        }
      ],
      "GovernorOnlyProposer(address)": [
        {
          "details": "The `account` is not a proposer."
        }
      ],
      "GovernorQueueNotImplemented()": [
        {
          "details": "Queue operation is not implemented for this governor. Execute should be called directly."
        }
      ],
      "GovernorRestrictedProposer(address)": [
        {
          "details": "The `proposer` is not allowed to create a proposal."
        }
      ],
      "GovernorUnexpectedProposalState(uint256,uint8,bytes32)": [
        {
          "details": "The current state of a proposal is not the required for performing an operation. The `expectedStates` is a bitmap with the bits enabled for each ProposalState enum position counting from right to left. NOTE: If `expectedState` is `bytes32(0)`, the proposal is expected to not be in any state (i.e. not exist). This is the case when a proposal that is expected to be unset is already initiated (the proposal is duplicated). See {Governor-_encodeStateBitmap}."
        }
      ],
      "InvalidAccountNonce(address,uint256)": [
        {
          "details": "The nonce used for an `account` is not the expected current nonce."
        }
      ],
      "QueueEmpty()": [
        {
          "details": "An operation (e.g. {front}) couldn't be completed due to the queue being empty."
        }
      ],
      "QueueFull()": [
        {
          "details": "A push operation couldn't be completed due to the queue being full."
        }
      ],
      "SafeCastOverflowedUintDowncast(uint8,uint256)": [
        {
          "details": "Value doesn't fit in an uint of `bits` size."
        }
      ]
    },
    "events": {
      "EIP712DomainChanged()": {
        "details": "MAY be emitted to signal that the domain could have changed."
      },
      "ProposalCanceled(uint256)": {
        "details": "Emitted when a proposal is canceled."
      },
      "ProposalCreated(uint256,address,address[],uint256[],string[],bytes[],uint256,uint256,string)": {
        "details": "Emitted when a proposal is created."
      },
      "ProposalExecuted(uint256)": {
        "details": "Emitted when a proposal is executed."
      },
      "ProposalQueued(uint256,uint256)": {
        "details": "Emitted when a proposal is queued."
      },
      "TimelockChange(address,address)": {
        "details": "Emitted when the timelock controller used for proposal execution is modified."
      },
      "VoteCast(address,uint256,uint8,uint256,string)": {
        "details": "Emitted when a vote is cast without params. Note: `support` values should be seen as buckets. Their interpretation depends on the voting module used."
      },
      "VoteCastWithParams(address,uint256,uint8,uint256,string,bytes)": {
        "details": "Emitted when a vote is cast with params. Note: `support` values should be seen as buckets. Their interpretation depends on the voting module used. `params` are additional encoded parameters. Their interpepretation also depends on the voting module used."
      }
    },
    "kind": "dev",
    "methods": {
      "CLOCK_MODE()": {
        "details": "Machine-readable description of the clock as specified in EIP-6372."
      },
      "COUNTING_MODE()": {
        "details": "See {IGovernor-COUNTING_MODE}."
      },
      "cancel(address[],uint256[],bytes[],bytes32)": {
        "details": "See {IGovernor-cancel}."
      },
      "castVote(uint256,uint8)": {
        "details": "See {IGovernor-castVote}."
      },
      "castVoteBySig(uint256,uint8,address,bytes)": {
        "details": "See {IGovernor-castVoteBySig}."
      },
      "castVoteWithReason(uint256,uint8,string)": {
        "details": "See {IGovernor-castVoteWithReason}."
      },
      "castVoteWithReasonAndParams(uint256,uint8,string,bytes)": {
        "details": "See {IGovernor-castVoteWithReasonAndParams}."
      },
      "castVoteWithReasonAndParamsBySig(uint256,uint8,address,string,bytes,bytes)": {
        "details": "See {IGovernor-castVoteWithReasonAndParamsBySig}."
      },
      "clock()": {
        "details": "Clock (as specified in EIP-6372) is set to match the token's clock. Fallback to block numbers if the token does not implement EIP-6372."
      },
      "eip712Domain()": {
        "details": "See {IERC-5267}."
      },
      "execute(address[],uint256[],bytes[],bytes32)": {
        "details": "See {IGovernor-execute}."
      },
      "getVotes(address,uint256)": {
        "details": "See {IGovernor-getVotes}."
      },
      "getVotesWithParams(address,uint256,bytes)": {
        "details": "See {IGovernor-getVotesWithParams}."
      },
      "hasVoted(uint256,address)": {
        "details": "See {IGovernor-hasVoted}."
      },
      "hashProposal(address[],uint256[],bytes[],bytes32)": {
        "details": "See {IGovernor-hashProposal}. The proposal id is produced by hashing the ABI encoded `targets` array, the `values` array, the `calldatas` array and the descriptionHash (bytes32 which itself is the keccak256 hash of the description string). This proposal id can be produced from the proposal data which is part of the {ProposalCreated} event. It can even be computed in advance, before the proposal is submitted. Note that the chainId and the governor address are not part of the proposal id computation. Consequently, the same proposal (with same operation and same description) will have the same id if submitted on multiple governors across multiple networks. This also means that in order to execute the same operation twice (on the same governor) the proposer will have to change the description in order to avoid proposal id conflicts."
      },
      "name()": {
        "details": "See {IGovernor-name}."
      },
      "nonces(address)": {
        "details": "Returns the next unused nonce for an address."
      },
      "onERC1155BatchReceived(address,address,uint256[],uint256[],bytes)": {
        "details": "See {IERC1155Receiver-onERC1155BatchReceived}. Receiving tokens is disabled if the governance executor is other than the governor itself (eg. when using with a timelock)."
      },
      "onERC1155Received(address,address,uint256,uint256,bytes)": {
        "details": "See {IERC1155Receiver-onERC1155Received}. Receiving tokens is disabled if the governance executor is other than the governor itself (eg. when using with a timelock)."
      },
      "onERC721Received(address,address,uint256,bytes)": {
        "details": "See {IERC721Receiver-onERC721Received}. Receiving tokens is disabled if the governance executor is other than the governor itself (eg. when using with a timelock)."
      },
      "proposalDeadline(uint256)": {
        "details": "See {IGovernor-proposalDeadline}."
      },
      "proposalEta(uint256)": {
        "details": "See {IGovernor-proposalEta}."
      },
      "proposalProposer(uint256)": {
        "details": "See {IGovernor-proposalProposer}."
      },
      "proposalSnapshot(uint256)": {
        "details": "See {IGovernor-proposalSnapshot}."
      },
      "proposalVotes(uint256)": {
        "details": "Accessor to the internal vote counts."
      },
      "propose(address[],uint256[],bytes[],string)": {
        "details": "See {IGovernor-propose}. This function has opt-in frontrunning protection, described in {_isValidDescriptionForProposer}."
      },
      "queue(address[],uint256[],bytes[],bytes32)": {
        "details": "See {IGovernor-queue}."
      },
      "quorumDenominator()": {
        "details": "Returns the quorum denominator. Defaults to 100, but may be overridden."
      },
      "quorumNumerator()": {
        "details": "Returns the current quorum numerator. See {quorumDenominator}."
      },
      "quorumNumerator(uint256)": {
        "details": "Returns the quorum numerator at a specific timepoint. See {quorumDenominator}."
      },
      "relay(address,uint256,bytes)": {
        "details": "Relays a transaction or function call to an arbitrary target. In cases where the governance executor is some contract other than the governor itself, like when using a timelock, this function can be invoked in a governance proposal to recover tokens or Ether that was sent to the governor contract by mistake. Note that if the executor is simply the governor itself, use of `relay` is redundant."
      },
      "setProposalThreshold(uint256)": {
        "details": "Update the proposal threshold. This operation can only be performed through a governance proposal. Emits a {ProposalThresholdSet} event."
      },
      "setVotingDelay(uint48)": {
        "details": "Update the voting delay. This operation can only be performed through a governance proposal. Emits a {VotingDelaySet} event."
      },
      "setVotingPeriod(uint32)": {
        "details": "Update the voting period. This operation can only be performed through a governance proposal. Emits a {VotingPeriodSet} event."
      },
      "supportsInterface(bytes4)": {
        "details": "See {IERC165-supportsInterface}."
      },
      "timelock()": {
        "details": "Public accessor to check the address of the timelock"
      },
      "token()": {
        "details": "The token that voting power is sourced from."
      },
      "updateQuorumNumerator(uint256)": {
        "details": "Changes the quorum numerator. Emits a {QuorumNumeratorUpdated} event. Requirements: - Must be called through a governance proposal. - New numerator must be smaller or equal to the denominator."
      },
      "updateTimelock(address)": {
        "details": "Public endpoint to update the underlying timelock instance. Restricted to the timelock itself, so updates must be proposed, scheduled, and executed through governance proposals. CAUTION: It is not recommended to change the timelock while there are other queued governance proposals."
      },
      "version()": {
        "details": "See {IGovernor-version}."
      }
    },
    "version": 1
  },
  "userdoc": {
    "kind": "user",
    "methods": {},
    "version": 1
  },
  "storageLayout": {
    "storage": [
      {
        "astId": 6470,
        "contract": "contracts/governance/governanceContract.sol:MyGovernor",
        "label": "_nameFallback",
        "offset": 0,
        "slot": "0",
        "type": "t_string_storage"
      },
      {
        "astId": 6472,
        "contract": "contracts/governance/governanceContract.sol:MyGovernor",
        "label": "_versionFallback",
        "offset": 0,
        "slot": "1",
        "type": "t_string_storage"
      },
      {
        "astId": 5449,
        "contract": "contracts/governance/governanceContract.sol:MyGovernor",
        "label": "_nonces",
        "offset": 0,
        "slot": "2",
        "type": "t_mapping(t_address,t_uint256)"
      },
      {
        "astId": 469,
        "contract": "contracts/governance/governanceContract.sol:MyGovernor",
        "label": "_name",
        "offset": 0,
        "slot": "3",
        "type": "t_string_storage"
      },
      {
        "astId": 474,
        "contract": "contracts/governance/governanceContract.sol:MyGovernor",
        "label": "_proposals",
        "offset": 0,
        "slot": "4",
        "type": "t_mapping(t_uint256,t_struct(ProposalCore)447_storage)"
      },
      {
        "astId": 477,
        "contract": "contracts/governance/governanceContract.sol:MyGovernor",
        "label": "_governanceCall",
        "offset": 0,
        "slot": "5",
        "type": "t_struct(Bytes32Deque)11379_storage"
      },
      {
        "astId": 3995,
        "contract": "contracts/governance/governanceContract.sol:MyGovernor",
        "label": "_proposalThreshold",
        "offset": 0,
        "slot": "7",
        "type": "t_uint256"
      },
      {
        "astId": 3997,
        "contract": "contracts/governance/governanceContract.sol:MyGovernor",
        "label": "_votingDelay",
        "offset": 0,
        "slot": "8",
        "type": "t_uint48"
      },
      {
        "astId": 3999,
        "contract": "contracts/governance/governanceContract.sol:MyGovernor",
        "label": "_votingPeriod",
        "offset": 6,
        "slot": "8",
        "type": "t_uint32"
      },
      {
        "astId": 3769,
        "contract": "contracts/governance/governanceContract.sol:MyGovernor",
        "label": "_proposalVotes",
        "offset": 0,
        "slot": "9",
        "type": "t_mapping(t_uint256,t_struct(ProposalVote)3764_storage)"
      },
      {
        "astId": 4655,
        "contract": "contracts/governance/governanceContract.sol:MyGovernor",
        "label": "_quorumNumeratorHistory",
        "offset": 0,
        "slot": "10",
        "type": "t_struct(Trace208)10319_storage"
      },
      {
        "astId": 4191,
        "contract": "contracts/governance/governanceContract.sol:MyGovernor",
        "label": "_timelock",
        "offset": 0,
        "slot": "11",
        "type": "t_contract(TimelockController)3740"
      },
      {
        "astId": 4195,
        "contract": "contracts/governance/governanceContract.sol:MyGovernor",
        "label": "_timelockIds",
        "offset": 0,
        "slot": "12",
        "type": "t_mapping(t_uint256,t_bytes32)"
      }
    ],
    "types": {
      "t_address": {
        "encoding": "inplace",
        "label": "address",
        "numberOfBytes": "20"
      },
      "t_array(t_struct(Checkpoint208)10324_storage)dyn_storage": {
        "base": "t_struct(Checkpoint208)10324_storage",
        "encoding": "dynamic_array",
        "label": "struct Checkpoints.Checkpoint208[]",
        "numberOfBytes": "32"
      },
      "t_bool": {
        "encoding": "inplace",
        "label": "bool",
        "numberOfBytes": "1"
      },
      "t_bytes32": {
        "encoding": "inplace",
        "label": "bytes32",
        "numberOfBytes": "32"
      },
      "t_contract(TimelockController)3740": {
        "encoding": "inplace",
        "label": "contract TimelockController",
        "numberOfBytes": "20"
      },
      "t_mapping(t_address,t_bool)": {
        "encoding": "mapping",
        "key": "t_address",
        "label": "mapping(address => bool)",
        "numberOfBytes": "32",
        "value": "t_bool"
      },
      "t_mapping(t_address,t_uint256)": {
        "encoding": "mapping",
        "key": "t_address",
        "label": "mapping(address => uint256)",
        "numberOfBytes": "32",
        "value": "t_uint256"
      },
      "t_mapping(t_uint128,t_bytes32)": {
        "encoding": "mapping",
        "key": "t_uint128",
        "label": "mapping(uint128 => bytes32)",
        "numberOfBytes": "32",
        "value": "t_bytes32"
      },
      "t_mapping(t_uint256,t_bytes32)": {
        "encoding": "mapping",
        "key": "t_uint256",
        "label": "mapping(uint256 => bytes32)",
        "numberOfBytes": "32",
        "value": "t_bytes32"
      },
      "t_mapping(t_uint256,t_struct(ProposalCore)447_storage)": {
        "encoding": "mapping",
        "key": "t_uint256",
        "label": "mapping(uint256 => struct Governor.ProposalCore)",
        "numberOfBytes": "32",
        "value": "t_struct(ProposalCore)447_storage"
      },
      "t_mapping(t_uint256,t_struct(ProposalVote)3764_storage)": {
        "encoding": "mapping",
        "key": "t_uint256",
        "label": "mapping(uint256 => struct GovernorCountingSimple.ProposalVote)",
        "numberOfBytes": "32",
        "value": "t_struct(ProposalVote)3764_storage"
      },
      "t_string_storage": {
        "encoding": "bytes",
        "label": "string",
        "numberOfBytes": "32"
      },
      "t_struct(Bytes32Deque)11379_storage": {
        "encoding": "inplace",
        "label": "struct DoubleEndedQueue.Bytes32Deque",
        "members": [
          {
            "astId": 11372,
            "contract": "contracts/governance/governanceContract.sol:MyGovernor",
            "label": "_begin",
            "offset": 0,
            "slot": "0",
            "type": "t_uint128"
          },
          {
            "astId": 11374,
            "contract": "contracts/governance/governanceContract.sol:MyGovernor",
            "label": "_end",
            "offset": 16,
            "slot": "0",
            "type": "t_uint128"
          },
          {
            "astId": 11378,
            "contract": "contracts/governance/governanceContract.sol:MyGovernor",
            "label": "_data",
            "offset": 0,
            "slot": "1",
            "type": "t_mapping(t_uint128,t_bytes32)"
          }
        ],
        "numberOfBytes": "64"
      },
      "t_struct(Checkpoint208)10324_storage": {
        "encoding": "inplace",
        "label": "struct Checkpoints.Checkpoint208",
        "members": [
          {
            "astId": 10321,
            "contract": "contracts/governance/governanceContract.sol:MyGovernor",
            "label": "_key",
            "offset": 0,
            "slot": "0",
            "type": "t_uint48"
          },
          {
            "astId": 10323,
            "contract": "contracts/governance/governanceContract.sol:MyGovernor",
            "label": "_value",
            "offset": 6,
            "slot": "0",
            "type": "t_uint208"
          }
        ],
        "numberOfBytes": "32"
      },
      "t_struct(ProposalCore)447_storage": {
        "encoding": "inplace",
        "label": "struct Governor.ProposalCore",
        "members": [
          {
            "astId": 436,
            "contract": "contracts/governance/governanceContract.sol:MyGovernor",
            "label": "proposer",
            "offset": 0,
            "slot": "0",
            "type": "t_address"
          },
          {
            "astId": 438,
            "contract": "contracts/governance/governanceContract.sol:MyGovernor",
            "label": "voteStart",
            "offset": 20,
            "slot": "0",
            "type": "t_uint48"
          },
          {
            "astId": 440,
            "contract": "contracts/governance/governanceContract.sol:MyGovernor",
            "label": "voteDuration",
            "offset": 26,
            "slot": "0",
            "type": "t_uint32"
          },
          {
            "astId": 442,
            "contract": "contracts/governance/governanceContract.sol:MyGovernor",
            "label": "executed",
            "offset": 30,
            "slot": "0",
            "type": "t_bool"
          },
          {
            "astId": 444,
            "contract": "contracts/governance/governanceContract.sol:MyGovernor",
            "label": "canceled",
            "offset": 31,
            "slot": "0",
            "type": "t_bool"
          },
          {
            "astId": 446,
            "contract": "contracts/governance/governanceContract.sol:MyGovernor",
            "label": "etaSeconds",
            "offset": 0,
            "slot": "1",
            "type": "t_uint48"
          }
        ],
        "numberOfBytes": "64"
      },
      "t_struct(ProposalVote)3764_storage": {
        "encoding": "inplace",
        "label": "struct GovernorCountingSimple.ProposalVote",
        "members": [
          {
            "astId": 3755,
            "contract": "contracts/governance/governanceContract.sol:MyGovernor",
            "label": "againstVotes",
            "offset": 0,
            "slot": "0",
            "type": "t_uint256"
          },
          {
            "astId": 3757,
            "contract": "contracts/governance/governanceContract.sol:MyGovernor",
            "label": "forVotes",
            "offset": 0,
            "slot": "1",
            "type": "t_uint256"
          },
          {
            "astId": 3759,
            "contract": "contracts/governance/governanceContract.sol:MyGovernor",
            "label": "abstainVotes",
            "offset": 0,
            "slot": "2",
            "type": "t_uint256"
          },
          {
            "astId": 3763,
            "contract": "contracts/governance/governanceContract.sol:MyGovernor",
            "label": "hasVoted",
            "offset": 0,
            "slot": "3",
            "type": "t_mapping(t_address,t_bool)"
          }
        ],
        "numberOfBytes": "128"
      },
      "t_struct(Trace208)10319_storage": {
        "encoding": "inplace",
        "label": "struct Checkpoints.Trace208",
        "members": [
          {
            "astId": 10318,
            "contract": "contracts/governance/governanceContract.sol:MyGovernor",
            "label": "_checkpoints",
            "offset": 0,
            "slot": "0",
            "type": "t_array(t_struct(Checkpoint208)10324_storage)dyn_storage"
          }
        ],
        "numberOfBytes": "32"
      },
      "t_uint128": {
        "encoding": "inplace",
        "label": "uint128",
        "numberOfBytes": "16"
      },
      "t_uint208": {
        "encoding": "inplace",
        "label": "uint208",
        "numberOfBytes": "26"
      },
      "t_uint256": {
        "encoding": "inplace",
        "label": "uint256",
        "numberOfBytes": "32"
      },
      "t_uint32": {
        "encoding": "inplace",
        "label": "uint32",
        "numberOfBytes": "4"
      },
      "t_uint48": {
        "encoding": "inplace",
        "label": "uint48",
        "numberOfBytes": "6"
      }
    }
  }
}