{
  "address": "0x9fE46736679d2D9a65F0992F2272dE9f3c7fa6e0",
  "abi": [
    {
      "inputs": [
        {
          "internalType": "uint256",
          "name": "minDelay",
          "type": "uint256"
        },
        {
          "internalType": "address[]",
          "name": "proposers",
          "type": "address[]"
        },
        {
          "internalType": "address[]",
          "name": "executors",
          "type": "address[]"
        },
        {
          "internalType": "address",
          "name": "admin",
          "type": "address"
        }
      ],
      "stateMutability": "nonpayable",
      "type": "constructor"
    },
    {
      "inputs": [],
      "name": "AccessControlBadConfirmation",
      "type": "error"
    },
    {
      "inputs": [
        {
          "internalType": "address",
          "name": "account",
          "type": "address"
        },
        {
          "internalType": "bytes32",
          "name": "neededRole",
          "type": "bytes32"
        }
      ],
      "name": "AccessControlUnauthorizedAccount",
      "type": "error"
    },
    {
      "inputs": [],
      "name": "FailedInnerCall",
      "type": "error"
    },
    {
      "inputs": [
        {
          "internalType": "uint256",
          "name": "delay",
          "type": "uint256"
        },
        {
          "internalType": "uint256",
          "name": "minDelay",
          "type": "uint256"
        }
      ],
      "name": "TimelockInsufficientDelay",
      "type": "error"
    },
    {
      "inputs": [
        {
          "internalType": "uint256",
          "name": "targets",
          "type": "uint256"
        },
        {
          "internalType": "uint256",
          "name": "payloads",
          "type": "uint256"
        },
        {
          "internalType": "uint256",
          "name": "values",
          "type": "uint256"
        }
      ],
      "name": "TimelockInvalidOperationLength",
      "type": "error"
    },
    {
      "inputs": [
        {
          "internalType": "address",
          "name": "caller",
          "type": "address"
        }
      ],
      "name": "TimelockUnauthorizedCaller",
      "type": "error"
    },
    {
      "inputs": [
        {
          "internalType": "bytes32",
          "name": "predecessorId",
          "type": "bytes32"
        }
      ],
      "name": "TimelockUnexecutedPredecessor",
      "type": "error"
    },
    {
      "inputs": [
        {
          "internalType": "bytes32",
          "name": "operationId",
          "type": "bytes32"
        },
        {
          "internalType": "bytes32",
          "name": "expectedStates",
          "type": "bytes32"
        }
      ],
      "name": "TimelockUnexpectedOperationState",
      "type": "error"
    },
    {
      "anonymous": false,
      "inputs": [
        {
          "indexed": true,
          "internalType": "bytes32",
          "name": "id",
          "type": "bytes32"
        },
        {
          "indexed": true,
          "internalType": "uint256",
          "name": "index",
          "type": "uint256"
        },
        {
          "indexed": false,
          "internalType": "address",
          "name": "target",
          "type": "address"
        },
        {
          "indexed": false,
          "internalType": "uint256",
          "name": "value",
          "type": "uint256"
        },
        {
          "indexed": false,
          "internalType": "bytes",
          "name": "data",
          "type": "bytes"
        }
      ],
      "name": "CallExecuted",
      "type": "event"
    },
    {
      "anonymous": false,
      "inputs": [
        {
          "indexed": true,
          "internalType": "bytes32",
          "name": "id",
          "type": "bytes32"
        },
        {
          "indexed": false,
          "internalType": "bytes32",
          "name": "salt",
          "type": "bytes32"
        }
      ],
      "name": "CallSalt",
      "type": "event"
    },
    {
      "anonymous": false,
      "inputs": [
        {
          "indexed": true,
          "internalType": "bytes32",
          "name": "id",
          "type": "bytes32"
        },
        {
          "indexed": true,
          "internalType": "uint256",
          "name": "index",
          "type": "uint256"
        },
        {
          "indexed": false,
          "internalType": "address",
          "name": "target",
          "type": "address"
        },
        {
          "indexed": false,
          "internalType": "uint256",
          "name": "value",
          "type": "uint256"
        },
        {
          "indexed": false,
          "internalType": "bytes",
          "name": "data",
          "type": "bytes"
        },
        {
          "indexed": false,
          "internalType": "bytes32",
          "name": "predecessor",
          "type": "bytes32"
        },
        {
          "indexed": false,
          "internalType": "uint256",
          "name": "delay",
          "type": "uint256"
        }
      ],
      "name": "CallScheduled",
      "type": "event"
    },
    {
      "anonymous": false,
      "inputs": [
        {
          "indexed": true,
          "internalType": "bytes32",
          "name": "id",
          "type": "bytes32"
        }
      ],
      "name": "Cancelled",
      "type": "event"
    },
    {
      "anonymous": false,
      "inputs": [
        {
          "indexed": false,
          "internalType": "uint256",
          "name": "oldDuration",
          "type": "uint256"
        },
        {
          "indexed": false,
          "internalType": "uint256",
          "name": "newDuration",
          "type": "uint256"
        }
      ],
      "name": "MinDelayChange",
      "type": "event"
    },
    {
      "anonymous": false,
      "inputs": [
        {
          "indexed": true,
          "internalType": "bytes32",
          "name": "role",
          "type": "bytes32"
        },
        {
          "indexed": true,
          "internalType": "bytes32",
          "name": "previousAdminRole",
          "type": "bytes32"
        },
        {
          "indexed": true,
          "internalType": "bytes32",
          "name": "newAdminRole",
          "type": "bytes32"
        }
      ],
      "name": "RoleAdminChanged",
      "type": "event"
    },
    {
      "anonymous": false,
      "inputs": [
        {
          "indexed": true,
          "internalType": "bytes32",
          "name": "role",
          "type": "bytes32"
        },
        {
          "indexed": true,
          "internalType": "address",
          "name": "account",
          "type": "address"
        },
        {
          "indexed": true,
          "internalType": "address",
          "name": "sender",
          "type": "address"
        }
      ],
      "name": "RoleGranted",
      "type": "event"
    },
    {
      "anonymous": false,
      "inputs": [
        {
          "indexed": true,
          "internalType": "bytes32",
          "name": "role",
          "type": "bytes32"
        },
        {
          "indexed": true,
          "internalType": "address",
          "name": "account",
          "type": "address"
        },
        {
          "indexed": true,
          "internalType": "address",
          "name": "sender",
          "type": "address"
        }
      ],
      "name": "RoleRevoked",
      "type": "event"
    },
    {
      "inputs": [],
      "name": "CANCELLER_ROLE",
      "outputs": [
        {
          "internalType": "bytes32",
          "name": "",
          "type": "bytes32"
        }
      ],
      "stateMutability": "view",
      "type": "function"
    },
    {
      "inputs": [],
      "name": "DEFAULT_ADMIN_ROLE",
      "outputs": [
        {
          "internalType": "bytes32",
          "name": "",
          "type": "bytes32"
        }
      ],
      "stateMutability": "view",
      "type": "function"
    },
    {
      "inputs": [],
      "name": "EXECUTOR_ROLE",
      "outputs": [
        {
          "internalType": "bytes32",
          "name": "",
          "type": "bytes32"
        }
      ],
      "stateMutability": "view",
      "type": "function"
    },
    {
      "inputs": [],
      "name": "PROPOSER_ROLE",
      "outputs": [
        {
          "internalType": "bytes32",
          "name": "",
          "type": "bytes32"
        }
      ],
      "stateMutability": "view",
      "type": "function"
    },
    {
      "inputs": [
        {
          "internalType": "bytes32",
          "name": "id",
          "type": "bytes32"
        }
      ],
      "name": "cancel",
      "outputs": [],
      "stateMutability": "nonpayable",
      "type": "function"
    },
    {
      "inputs": [
        {
          "internalType": "address",
          "name": "target",
          "type": "address"
        },
        {
          "internalType": "uint256",
          "name": "value",
          "type": "uint256"
        },
        {
          "internalType": "bytes",
          "name": "payload",
          "type": "bytes"
        },
        {
          "internalType": "bytes32",
          "name": "predecessor",
          "type": "bytes32"
        },
        {
          "internalType": "bytes32",
          "name": "salt",
          "type": "bytes32"
        }
      ],
      "name": "execute",
      "outputs": [],
      "stateMutability": "payable",
      "type": "function"
    },
    {
      "inputs": [
        {
          "internalType": "address[]",
          "name": "targets",
          "type": "address[]"
        },
        {
          "internalType": "uint256[]",
          "name": "values",
          "type": "uint256[]"
        },
        {
          "internalType": "bytes[]",
          "name": "payloads",
          "type": "bytes[]"
        },
        {
          "internalType": "bytes32",
          "name": "predecessor",
          "type": "bytes32"
        },
        {
          "internalType": "bytes32",
          "name": "salt",
          "type": "bytes32"
        }
      ],
      "name": "executeBatch",
      "outputs": [],
      "stateMutability": "payable",
      "type": "function"
    },
    {
      "inputs": [],
      "name": "getMinDelay",
      "outputs": [
        {
          "internalType": "uint256",
          "name": "",
          "type": "uint256"
        }
      ],
      "stateMutability": "view",
      "type": "function"
    },
    {
      "inputs": [
        {
          "internalType": "bytes32",
          "name": "id",
          "type": "bytes32"
        }
      ],
      "name": "getOperationState",
      "outputs": [
        {
          "internalType": "enum TimelockController.OperationState",
          "name": "",
          "type": "uint8"
        }
      ],
      "stateMutability": "view",
      "type": "function"
    },
    {
      "inputs": [
        {
          "internalType": "bytes32",
          "name": "role",
          "type": "bytes32"
        }
      ],
      "name": "getRoleAdmin",
      "outputs": [
        {
          "internalType": "bytes32",
          "name": "",
          "type": "bytes32"
        }
      ],
      "stateMutability": "view",
      "type": "function"
    },
    {
      "inputs": [
        {
          "internalType": "bytes32",
          "name": "id",
          "type": "bytes32"
        }
      ],
      "name": "getTimestamp",
      "outputs": [
        {
          "internalType": "uint256",
          "name": "",
          "type": "uint256"
        }
      ],
      "stateMutability": "view",
      "type": "function"
    },
    {
      "inputs": [
        {
          "internalType": "bytes32",
          "name": "role",
          "type": "bytes32"
        },
        {
          "internalType": "address",
          "name": "account",
          "type": "address"
        }
      ],
      "name": "grantRole",
      "outputs": [],
      "stateMutability": "nonpayable",
      "type": "function"
    },
    {
      "inputs": [
        {
          "internalType": "bytes32",
          "name": "role",
          "type": "bytes32"
        },
        {
          "internalType": "address",
          "name": "account",
          "type": "address"
        }
      ],
      "name": "hasRole",
      "outputs": [
        {
          "internalType": "bool",
          "name": "",
          "type": "bool"
        }
      ],
      "stateMutability": "view",
      "type": "function"
    },
    {
      "inputs": [
        {
          "internalType": "address",
          "name": "target",
          "type": "address"
        },
        {
          "internalType": "uint256",
          "name": "value",
          "type": "uint256"
        },
        {
          "internalType": "bytes",
          "name": "data",
          "type": "bytes"
        },
        {
          "internalType": "bytes32",
          "name": "predecessor",
          "type": "bytes32"
        },
        {
          "internalType": "bytes32",
          "name": "salt",
          "type": "bytes32"
        }
      ],
      "name": "hashOperation",
      "outputs": [
        {
          "internalType": "bytes32",
          "name": "",
          "type": "bytes32"
        }
      ],
      "stateMutability": "pure",
      "type": "function"
    },
    {
      "inputs": [
        {
          "internalType": "address[]",
          "name": "targets",
          "type": "address[]"
        },
        {
          "internalType": "uint256[]",
          "name": "values",
          "type": "uint256[]"
        },
        {
          "internalType": "bytes[]",
          "name": "payloads",
          "type": "bytes[]"
        },
        {
          "internalType": "bytes32",
          "name": "predecessor",
          "type": "bytes32"
        },
        {
          "internalType": "bytes32",
          "name": "salt",
          "type": "bytes32"
        }
      ],
      "name": "hashOperationBatch",
      "outputs": [
        {
          "internalType": "bytes32",
          "name": "",
          "type": "bytes32"
        }
      ],
      "stateMutability": "pure",
      "type": "function"
    },
    {
      "inputs": [
        {
          "internalType": "bytes32",
          "name": "id",
          "type": "bytes32"
        }
      ],
      "name": "isOperation",
      "outputs": [
        {
          "internalType": "bool",
          "name": "",
          "type": "bool"
        }
      ],
      "stateMutability": "view",
      "type": "function"
    },
    {
      "inputs": [
        {
          "internalType": "bytes32",
          "name": "id",
          "type": "bytes32"
        }
      ],
      "name": "isOperationDone",
      "outputs": [
        {
          "internalType": "bool",
          "name": "",
          "type": "bool"
        }
      ],
      "stateMutability": "view",
      "type": "function"
    },
    {
      "inputs": [
        {
          "internalType": "bytes32",
          "name": "id",
          "type": "bytes32"
        }
      ],
      "name": "isOperationPending",
      "outputs": [
        {
          "internalType": "bool",
          "name": "",
          "type": "bool"
        }
      ],
      "stateMutability": "view",
      "type": "function"
    },
    {
      "inputs": [
        {
          "internalType": "bytes32",
          "name": "id",
          "type": "bytes32"
        }
      ],
      "name": "isOperationReady",
      "outputs": [
        {
          "internalType": "bool",
          "name": "",
          "type": "bool"
        }
      ],
      "stateMutability": "view",
      "type": "function"
    },
    {
      "inputs": [
        {
          "internalType": "address",
          "name": "",
          "type": "address"
        },
        {
          "internalType": "address",
          "name": "",
          "type": "address"
        },
        {
          "internalType": "uint256[]",
          "name": "",
          "type": "uint256[]"
        },
        {
          "internalType": "uint256[]",
          "name": "",
          "type": "uint256[]"
        },
        {
          "internalType": "bytes",
          "name": "",
          "type": "bytes"
        }
      ],
      "name": "onERC1155BatchReceived",
      "outputs": [
        {
          "internalType": "bytes4",
          "name": "",
          "type": "bytes4"
        }
      ],
      "stateMutability": "nonpayable",
      "type": "function"
    },
    {
      "inputs": [
        {
          "internalType": "address",
          "name": "",
          "type": "address"
        },
        {
          "internalType": "address",
          "name": "",
          "type": "address"
        },
        {
          "internalType": "uint256",
          "name": "",
          "type": "uint256"
        },
        {
          "internalType": "uint256",
          "name": "",
          "type": "uint256"
        },
        {
          "internalType": "bytes",
          "name": "",
          "type": "bytes"
        }
      ],
      "name": "onERC1155Received",
      "outputs": [
        {
          "internalType": "bytes4",
          "name": "",
          "type": "bytes4"
        }
      ],
      "stateMutability": "nonpayable",
      "type": "function"
    },
    {
      "inputs": [
        {
          "internalType": "address",
          "name": "",
          "type": "address"
        },
        {
          "internalType": "address",
          "name": "",
          "type": "address"
        },
        {
          "internalType": "uint256",
          "name": "",
          "type": "uint256"
        },
        {
          "internalType": "bytes",
          "name": "",
          "type": "bytes"
        }
      ],
      "name": "onERC721Received",
      "outputs": [
        {
          "internalType": "bytes4",
          "name": "",
          "type": "bytes4"
        }
      ],
      "stateMutability": "nonpayable",
      "type": "function"
    },
    {
      "inputs": [
        {
          "internalType": "bytes32",
          "name": "role",
          "type": "bytes32"
        },
        {
          "internalType": "address",
          "name": "callerConfirmation",
          "type": "address"
        }
      ],
      "name": "renounceRole",
      "outputs": [],
      "stateMutability": "nonpayable",
      "type": "function"
    },
    {
      "inputs": [
        {
          "internalType": "bytes32",
          "name": "role",
          "type": "bytes32"
        },
        {
          "internalType": "address",
          "name": "account",
          "type": "address"
        }
      ],
      "name": "revokeRole",
      "outputs": [],
      "stateMutability": "nonpayable",
      "type": "function"
    },
    {
      "inputs": [
        {
          "internalType": "address",
          "name": "target",
          "type": "address"
        },
        {
          "internalType": "uint256",
          "name": "value",
          "type": "uint256"
        },
        {
          "internalType": "bytes",
          "name": "data",
          "type": "bytes"
        },
        {
          "internalType": "bytes32",
          "name": "predecessor",
          "type": "bytes32"
        },
        {
          "internalType": "bytes32",
          "name": "salt",
          "type": "bytes32"
        },
        {
          "internalType": "uint256",
          "name": "delay",
          "type": "uint256"
        }
      ],
      "name": "schedule",
      "outputs": [],
      "stateMutability": "nonpayable",
      "type": "function"
    },
    {
      "inputs": [
        {
          "internalType": "address[]",
          "name": "targets",
          "type": "address[]"
        },
        {
          "internalType": "uint256[]",
          "name": "values",
          "type": "uint256[]"
        },
        {
          "internalType": "bytes[]",
          "name": "payloads",
          "type": "bytes[]"
        },
        {
          "internalType": "bytes32",
          "name": "predecessor",
          "type": "bytes32"
        },
        {
          "internalType": "bytes32",
          "name": "salt",
          "type": "bytes32"
        },
        {
          "internalType": "uint256",
          "name": "delay",
          "type": "uint256"
        }
      ],
      "name": "scheduleBatch",
      "outputs": [],
      "stateMutability": "nonpayable",
      "type": "function"
    },
    {
      "inputs": [
        {
          "internalType": "bytes4",
          "name": "interfaceId",
          "type": "bytes4"
        }
      ],
      "name": "supportsInterface",
      "outputs": [
        {
          "internalType": "bool",
          "name": "",
          "type": "bool"
        }
      ],
      "stateMutability": "view",
      "type": "function"
    },
    {
      "inputs": [
        {
          "internalType": "uint256",
          "name": "newDelay",
          "type": "uint256"
        }
      ],
      "name": "updateDelay",
      "outputs": [],
      "stateMutability": "nonpayable",
      "type": "function"
    },
    {
      "stateMutability": "payable",
      "type": "receive"
    }
  ],
  "transactionHash": "0xd6e9b77197683570998df85194fbfbd443c24eccd69ed23891ff615dfec87c37",
  "args": [
    3600,
    [],
    [],
    "0xf39Fd6e51aad88F6F4ce6aB8827279cffFb92266"
  ],
  "numDeployments": 1,
  "solcInputHash": "040448d0fc4de72c4462a8709937b242",
  "bytecode": "0x60806040523480156200001157600080fd5b5060405162001e1c38038062001e1c833981016040819052620000349162000337565b8383838362000045600030620001a5565b506001600160a01b03811615620000655762000063600082620001a5565b505b60005b83518110156200010557620000c07fb09aa5aeb3702cfd50b6b62bc4532604938f21248a27a1d5ca736082b6819cc1858381518110620000ac57620000ac620003be565b6020026020010151620001a560201b60201c565b50620000fb7ffd643c72710c63c0180259aba6b2d05451e3591a24e58b62239378085726f783858381518110620000ac57620000ac620003be565b5060010162000068565b5060005b825181101562000157576200014d7fd8aa0f3194971a2a116679f7c2090f6939c8d4e01a2a8d7e41d55e5351469e63848381518110620000ac57620000ac620003be565b5060010162000109565b5060028490556040805160008152602081018690527f11c24f4ead16507c69ac467fbd5e4eed5fb5c699626d2cc6d66421df253886d5910160405180910390a15050505050505050620003d4565b6000828152602081815260408083206001600160a01b038516845290915281205460ff166200024a576000838152602081815260408083206001600160a01b03861684529091529020805460ff19166001179055620002013390565b6001600160a01b0316826001600160a01b0316847f2f8788117e7eff1d82e926ec794901d17c78024a50270940304540a733656f0d60405160405180910390a45060016200024e565b5060005b92915050565b634e487b7160e01b600052604160045260246000fd5b80516001600160a01b03811681146200028257600080fd5b919050565b600082601f8301126200029957600080fd5b815160206001600160401b0380831115620002b857620002b862000254565b8260051b604051601f19603f83011681018181108482111715620002e057620002e062000254565b60405293845260208187018101949081019250878511156200030157600080fd5b6020870191505b848210156200032c576200031c826200026a565b8352918301919083019062000308565b979650505050505050565b600080600080608085870312156200034e57600080fd5b845160208601519094506001600160401b03808211156200036e57600080fd5b6200037c8883890162000287565b945060408701519150808211156200039357600080fd5b50620003a28782880162000287565b925050620003b3606086016200026a565b905092959194509250565b634e487b7160e01b600052603260045260246000fd5b611a3880620003e46000396000f3fe6080604052600436106101bb5760003560e01c80638065657f116100ec578063bc197c811161008a578063d547741f11610064578063d547741f1461056a578063e38335e51461058a578063f23a6e611461059d578063f27a0c92146105c957600080fd5b8063bc197c81146104f1578063c4d252f51461051d578063d45c44351461053d57600080fd5b806391d14854116100c657806391d1485414610468578063a217fddf14610488578063b08e51c01461049d578063b1c5f427146104d157600080fd5b80638065657f146103f45780638f2a0bb0146104145780638f61f4f51461043457600080fd5b80632ab0f5291161015957806336568abe1161013357806336568abe14610367578063584b153e1461038757806364d62353146103a75780637958004c146103c757600080fd5b80632ab0f529146103075780632f2ff15d1461032757806331d507501461034757600080fd5b8063134008d311610195578063134008d31461026057806313bc9f2014610273578063150b7a0214610293578063248a9ca3146102d757600080fd5b806301d5062a146101c757806301ffc9a7146101e957806307bd02651461021e57600080fd5b366101c257005b600080fd5b3480156101d357600080fd5b506101e76101e23660046111ba565b6105de565b005b3480156101f557600080fd5b5061020961020436600461122e565b6106b4565b60405190151581526020015b60405180910390f35b34801561022a57600080fd5b506102527fd8aa0f3194971a2a116679f7c2090f6939c8d4e01a2a8d7e41d55e5351469e6381565b604051908152602001610215565b6101e761026e366004611258565b6106c5565b34801561027f57600080fd5b5061020961028e3660046112c3565b61077a565b34801561029f57600080fd5b506102be6102ae366004611391565b630a85bd0160e11b949350505050565b6040516001600160e01b03199091168152602001610215565b3480156102e357600080fd5b506102526102f23660046112c3565b60009081526020819052604090206001015490565b34801561031357600080fd5b506102096103223660046112c3565b6107a0565b34801561033357600080fd5b506101e76103423660046113f8565b6107a9565b34801561035357600080fd5b506102096103623660046112c3565b6107d4565b34801561037357600080fd5b506101e76103823660046113f8565b6107f9565b34801561039357600080fd5b506102096103a23660046112c3565b610831565b3480156103b357600080fd5b506101e76103c23660046112c3565b610877565b3480156103d357600080fd5b506103e76103e23660046112c3565b6108ea565b604051610215919061143a565b34801561040057600080fd5b5061025261040f366004611258565b610935565b34801561042057600080fd5b506101e761042f3660046114a6565b610974565b34801561044057600080fd5b506102527fb09aa5aeb3702cfd50b6b62bc4532604938f21248a27a1d5ca736082b6819cc181565b34801561047457600080fd5b506102096104833660046113f8565b610b02565b34801561049457600080fd5b50610252600081565b3480156104a957600080fd5b506102527ffd643c72710c63c0180259aba6b2d05451e3591a24e58b62239378085726f78381565b3480156104dd57600080fd5b506102526104ec366004611557565b610b2b565b3480156104fd57600080fd5b506102be61050c36600461167e565b63bc197c8160e01b95945050505050565b34801561052957600080fd5b506101e76105383660046112c3565b610b70565b34801561054957600080fd5b506102526105583660046112c3565b60009081526001602052604090205490565b34801561057657600080fd5b506101e76105853660046113f8565b610c1b565b6101e7610598366004611557565b610c40565b3480156105a957600080fd5b506102be6105b8366004611727565b63f23a6e6160e01b95945050505050565b3480156105d557600080fd5b50600254610252565b7fb09aa5aeb3702cfd50b6b62bc4532604938f21248a27a1d5ca736082b6819cc161060881610dc7565b6000610618898989898989610935565b90506106248184610dd4565b6000817f4cf4410cc57040e44862ef0f45f3dd5a5e02db8eb8add648d4b0e236f1d07dca8b8b8b8b8b8a604051610660969594939291906117b4565b60405180910390a383156106a957807f20fda5fd27a1ea7bf5b9567f143ac5470bb059374a27e8f67cb44f946f6d0387856040516106a091815260200190565b60405180910390a25b505050505050505050565b60006106bf82610e68565b92915050565b7fd8aa0f3194971a2a116679f7c2090f6939c8d4e01a2a8d7e41d55e5351469e636106f1816000610b02565b6106ff576106ff8133610e8d565b600061070f888888888888610935565b905061071b8185610eca565b61072788888888610f18565b6000817fc2617efa69bab66782fa219543714338489c4e9e178271560a91b82c3f612b588a8a8a8a60405161075f94939291906117f1565b60405180910390a361077081610f90565b5050505050505050565b600060025b610788836108ea565b600381111561079957610799611424565b1492915050565b6000600361077f565b6000828152602081905260409020600101546107c481610dc7565b6107ce8383610fbc565b50505050565b6000806107e0836108ea565b60038111156107f1576107f1611424565b141592915050565b6001600160a01b03811633146108225760405163334bd91960e11b815260040160405180910390fd5b61082c828261104e565b505050565b60008061083d836108ea565b9050600181600381111561085357610853611424565b14806108705750600281600381111561086e5761086e611424565b145b9392505050565b333081146108a85760405163e2850c5960e01b81526001600160a01b03821660048201526024015b60405180910390fd5b60025460408051918252602082018490527f11c24f4ead16507c69ac467fbd5e4eed5fb5c699626d2cc6d66421df253886d5910160405180910390a150600255565b6000818152600160205260408120548060000361090a5750600092915050565b6001810361091b5750600392915050565b4281111561092c5750600192915050565b50600292915050565b6000868686868686604051602001610952969594939291906117b4565b6040516020818303038152906040528051906020012090509695505050505050565b7fb09aa5aeb3702cfd50b6b62bc4532604938f21248a27a1d5ca736082b6819cc161099e81610dc7565b88871415806109ad5750888514155b156109df576040516001624fcdef60e01b03198152600481018a9052602481018690526044810188905260640161089f565b60006109f18b8b8b8b8b8b8b8b610b2b565b90506109fd8184610dd4565b60005b8a811015610ab35780827f4cf4410cc57040e44862ef0f45f3dd5a5e02db8eb8add648d4b0e236f1d07dca8e8e85818110610a3d57610a3d611823565b9050602002016020810190610a529190611839565b8d8d86818110610a6457610a64611823565b905060200201358c8c87818110610a7d57610a7d611823565b9050602002810190610a8f9190611854565b8c8b604051610aa3969594939291906117b4565b60405180910390a3600101610a00565b508315610af557807f20fda5fd27a1ea7bf5b9567f143ac5470bb059374a27e8f67cb44f946f6d038785604051610aec91815260200190565b60405180910390a25b5050505050505050505050565b6000918252602082815260408084206001600160a01b0393909316845291905290205460ff1690565b60008888888888888888604051602001610b4c989796959493929190611930565b60405160208183030381529060405280519060200120905098975050505050505050565b7ffd643c72710c63c0180259aba6b2d05451e3591a24e58b62239378085726f783610b9a81610dc7565b610ba382610831565b610bdf5781610bb260026110b9565b610bbc60016110b9565b604051635ead8eb560e01b8152600481019390935217602482015260440161089f565b6000828152600160205260408082208290555183917fbaa1eb22f2a492ba1a5fea61b8df4d27c6c8b5f3971e63bb58fa14ff72eedb7091a25050565b600082815260208190526040902060010154610c3681610dc7565b6107ce838361104e565b7fd8aa0f3194971a2a116679f7c2090f6939c8d4e01a2a8d7e41d55e5351469e63610c6c816000610b02565b610c7a57610c7a8133610e8d565b8786141580610c895750878414155b15610cbb576040516001624fcdef60e01b0319815260048101899052602481018590526044810187905260640161089f565b6000610ccd8a8a8a8a8a8a8a8a610b2b565b9050610cd98185610eca565b60005b89811015610db15760008b8b83818110610cf857610cf8611823565b9050602002016020810190610d0d9190611839565b905060008a8a84818110610d2357610d23611823565b9050602002013590503660008a8a86818110610d4157610d41611823565b9050602002810190610d539190611854565b91509150610d6384848484610f18565b84867fc2617efa69bab66782fa219543714338489c4e9e178271560a91b82c3f612b5886868686604051610d9a94939291906117f1565b60405180910390a350505050806001019050610cdc565b50610dbb81610f90565b50505050505050505050565b610dd18133610e8d565b50565b610ddd826107d4565b15610e0f5781610ded60006110b9565b604051635ead8eb560e01b81526004810192909252602482015260440161089f565b6000610e1a60025490565b905080821015610e4757604051635433660960e01b8152600481018390526024810182905260440161089f565b610e5182426119d1565b600093845260016020526040909320929092555050565b60006001600160e01b03198216630271189760e51b14806106bf57506106bf826110dc565b610e978282610b02565b610ec65760405163e2517d3f60e01b81526001600160a01b03821660048201526024810183905260440161089f565b5050565b610ed38261077a565b610ee25781610ded60026110b9565b8015801590610ef75750610ef5816107a0565b155b15610ec65760405163121534c360e31b81526004810182905260240161089f565b600080856001600160a01b0316858585604051610f369291906119f2565b60006040518083038185875af1925050503d8060008114610f73576040519150601f19603f3d011682016040523d82523d6000602084013e610f78565b606091505b5091509150610f878282611111565b50505050505050565b610f998161077a565b610fa85780610ded60026110b9565b600090815260016020819052604090912055565b6000610fc88383610b02565b611046576000838152602081815260408083206001600160a01b03861684529091529020805460ff19166001179055610ffe3390565b6001600160a01b0316826001600160a01b0316847f2f8788117e7eff1d82e926ec794901d17c78024a50270940304540a733656f0d60405160405180910390a45060016106bf565b5060006106bf565b600061105a8383610b02565b15611046576000838152602081815260408083206001600160a01b0386168085529252808320805460ff1916905551339286917ff6391f5c32d9c69d2a47ea670b442974b53935d1edc7fd64eb21e047a839171b9190a45060016106bf565b60008160038111156110cd576110cd611424565b600160ff919091161b92915050565b60006001600160e01b03198216637965db0b60e01b14806106bf57506301ffc9a760e01b6001600160e01b03198316146106bf565b606082611126576111218261112d565b6106bf565b50806106bf565b80511561113d5780518082602001fd5b604051630a12f52160e11b815260040160405180910390fd5b80356001600160a01b038116811461116d57600080fd5b919050565b60008083601f84011261118457600080fd5b5081356001600160401b0381111561119b57600080fd5b6020830191508360208285010111156111b357600080fd5b9250929050565b600080600080600080600060c0888a0312156111d557600080fd5b6111de88611156565b96506020880135955060408801356001600160401b0381111561120057600080fd5b61120c8a828b01611172565b989b979a50986060810135976080820135975060a09091013595509350505050565b60006020828403121561124057600080fd5b81356001600160e01b03198116811461087057600080fd5b60008060008060008060a0878903121561127157600080fd5b61127a87611156565b95506020870135945060408701356001600160401b0381111561129c57600080fd5b6112a889828a01611172565b979a9699509760608101359660809091013595509350505050565b6000602082840312156112d557600080fd5b5035919050565b634e487b7160e01b600052604160045260246000fd5b604051601f8201601f191681016001600160401b038111828210171561131a5761131a6112dc565b604052919050565b600082601f83011261133357600080fd5b81356001600160401b0381111561134c5761134c6112dc565b61135f601f8201601f19166020016112f2565b81815284602083860101111561137457600080fd5b816020850160208301376000918101602001919091529392505050565b600080600080608085870312156113a757600080fd5b6113b085611156565b93506113be60208601611156565b92506040850135915060608501356001600160401b038111156113e057600080fd5b6113ec87828801611322565b91505092959194509250565b6000806040838503121561140b57600080fd5b8235915061141b60208401611156565b90509250929050565b634e487b7160e01b600052602160045260246000fd5b602081016004831061145c57634e487b7160e01b600052602160045260246000fd5b91905290565b60008083601f84011261147457600080fd5b5081356001600160401b0381111561148b57600080fd5b6020830191508360208260051b85010111156111b357600080fd5b600080600080600080600080600060c08a8c0312156114c457600080fd5b89356001600160401b03808211156114db57600080fd5b6114e78d838e01611462565b909b50995060208c013591508082111561150057600080fd5b61150c8d838e01611462565b909950975060408c013591508082111561152557600080fd5b506115328c828d01611462565b9a9d999c50979a969997986060880135976080810135975060a0013595509350505050565b60008060008060008060008060a0898b03121561157357600080fd5b88356001600160401b038082111561158a57600080fd5b6115968c838d01611462565b909a50985060208b01359150808211156115af57600080fd5b6115bb8c838d01611462565b909850965060408b01359150808211156115d457600080fd5b506115e18b828c01611462565b999c989b509699959896976060870135966080013595509350505050565b600082601f83011261161057600080fd5b813560206001600160401b0382111561162b5761162b6112dc565b8160051b61163a8282016112f2565b928352848101820192828101908785111561165457600080fd5b83870192505b848310156116735782358252918301919083019061165a565b979650505050505050565b600080600080600060a0868803121561169657600080fd5b61169f86611156565b94506116ad60208701611156565b935060408601356001600160401b03808211156116c957600080fd5b6116d589838a016115ff565b945060608801359150808211156116eb57600080fd5b6116f789838a016115ff565b9350608088013591508082111561170d57600080fd5b5061171a88828901611322565b9150509295509295909350565b600080600080600060a0868803121561173f57600080fd5b61174886611156565b945061175660208701611156565b9350604086013592506060860135915060808601356001600160401b0381111561177f57600080fd5b61171a88828901611322565b81835281816020850137506000828201602090810191909152601f909101601f19169091010190565b60018060a01b038716815285602082015260a0604082015260006117dc60a08301868861178b565b60608301949094525060800152949350505050565b60018060a01b038516815283602082015260606040820152600061181960608301848661178b565b9695505050505050565b634e487b7160e01b600052603260045260246000fd5b60006020828403121561184b57600080fd5b61087082611156565b6000808335601e1984360301811261186b57600080fd5b8301803591506001600160401b0382111561188557600080fd5b6020019150368190038213156111b357600080fd5b6000838385526020808601955060208560051b8301018460005b8781101561192357848303601f19018952813536889003601e190181126118da57600080fd5b870184810190356001600160401b038111156118f557600080fd5b80360382131561190457600080fd5b61190f85828461178b565b9a86019a94505050908301906001016118b4565b5090979650505050505050565b60a0808252810188905260008960c08301825b8b811015611971576001600160a01b0361195c84611156565b16825260209283019290910190600101611943565b5083810360208501528881526001600160fb1b0389111561199157600080fd5b8860051b9150818a602083013701828103602090810160408501526119b9908201878961189a565b60608401959095525050608001529695505050505050565b808201808211156106bf57634e487b7160e01b600052601160045260246000fd5b818382376000910190815291905056fea2646970667358221220c3da109c2a1595af70f67d51df1da7fc0c6c19c7e1c507d1f51125d2e997727864736f6c63430008180033",
  "devdoc": {
    "errors": {
      "AccessControlBadConfirmation()": [
        {
          "details": "The caller of a function is not the expected one. NOTE: Don't confuse with {AccessControlUnauthorizedAccount}."
        }
      ],
      "AccessControlUnauthorizedAccount(address,bytes32)": [
        {
          "details": "The `account` is missing a role."
        }
      ],
      "FailedInnerCall()": [
        {
          "details": "A call to an address target failed. The target may have reverted."
        }
      ],
      "TimelockInsufficientDelay(uint256,uint256)": [
        {
          "details": "The schedule operation doesn't meet the minimum delay."
        }
      ],
      "TimelockInvalidOperationLength(uint256,uint256,uint256)": [
        {
          "details": "Mismatch between the parameters length for an operation call."
        }
      ],
      "TimelockUnauthorizedCaller(address)": [
        {
          "details": "The caller account is not authorized."
        }
      ],
      "TimelockUnexecutedPredecessor(bytes32)": [
        {
          "details": "The predecessor to an operation not yet done."
        }
      ],
      "TimelockUnexpectedOperationState(bytes32,bytes32)": [
        {
          "details": "The current state of an operation is not as required. The `expectedStates` is a bitmap with the bits enabled for each OperationState enum position counting from right to left. See {_encodeStateBitmap}."
        }
      ]
    },
    "events": {
      "CallExecuted(bytes32,uint256,address,uint256,bytes)": {
        "details": "Emitted when a call is performed as part of operation `id`."
      },
      "CallSalt(bytes32,bytes32)": {
        "details": "Emitted when new proposal is scheduled with non-zero salt."
      },
      "CallScheduled(bytes32,uint256,address,uint256,bytes,bytes32,uint256)": {
        "details": "Emitted when a call is scheduled as part of operation `id`."
      },
      "Cancelled(bytes32)": {
        "details": "Emitted when operation `id` is cancelled."
      },
      "MinDelayChange(uint256,uint256)": {
        "details": "Emitted when the minimum delay for future operations is modified."
      },
      "RoleAdminChanged(bytes32,bytes32,bytes32)": {
        "details": "Emitted when `newAdminRole` is set as ``role``'s admin role, replacing `previousAdminRole` `DEFAULT_ADMIN_ROLE` is the starting admin for all roles, despite {RoleAdminChanged} not being emitted signaling this."
      },
      "RoleGranted(bytes32,address,address)": {
        "details": "Emitted when `account` is granted `role`. `sender` is the account that originated the contract call, an admin role bearer except when using {AccessControl-_setupRole}."
      },
      "RoleRevoked(bytes32,address,address)": {
        "details": "Emitted when `account` is revoked `role`. `sender` is the account that originated the contract call:   - if using `revokeRole`, it is the admin role bearer   - if using `renounceRole`, it is the role bearer (i.e. `account`)"
      }
    },
    "kind": "dev",
    "methods": {
      "cancel(bytes32)": {
        "details": "Cancel an operation. Requirements: - the caller must have the 'canceller' role."
      },
      "constructor": {
        "details": " - `minDelay`:  - `proposers`:  - `executors`:  - `admin`:   ytes32 public constant PROPOSER_ROLE = keccak256(\"PROPOSER_ROLE\"); bytes32 public constant EXECUTOR_ROLE = keccak256(\"EXECUTOR_ROLE\"); bytes32 public constant CANCELLER_ROLE = keccak256(\"CANCELLER_ROLE\"); uint256 internal constant _DONE_TIMESTAMP = uint256(1);"
      },
      "execute(address,uint256,bytes,bytes32,bytes32)": {
        "details": "Execute an (ready) operation containing a single transaction. Emits a {CallExecuted} event. Requirements: - the caller must have the 'executor' role."
      },
      "executeBatch(address[],uint256[],bytes[],bytes32,bytes32)": {
        "details": "Execute an (ready) operation containing a batch of transactions. Emits one {CallExecuted} event per transaction in the batch. Requirements: - the caller must have the 'executor' role."
      },
      "getMinDelay()": {
        "details": "Returns the minimum delay in seconds for an operation to become valid. This value can be changed by executing an operation that calls `updateDelay`."
      },
      "getOperationState(bytes32)": {
        "details": "Returns operation state."
      },
      "getRoleAdmin(bytes32)": {
        "details": "Returns the admin role that controls `role`. See {grantRole} and {revokeRole}. To change a role's admin, use {_setRoleAdmin}."
      },
      "getTimestamp(bytes32)": {
        "details": "Returns the timestamp at which an operation becomes ready (0 for unset operations, 1 for done operations)."
      },
      "grantRole(bytes32,address)": {
        "details": "Grants `role` to `account`. If `account` had not been already granted `role`, emits a {RoleGranted} event. Requirements: - the caller must have ``role``'s admin role. May emit a {RoleGranted} event."
      },
      "hasRole(bytes32,address)": {
        "details": "Returns `true` if `account` has been granted `role`."
      },
      "hashOperation(address,uint256,bytes,bytes32,bytes32)": {
        "details": "Returns the identifier of an operation containing a single transaction."
      },
      "hashOperationBatch(address[],uint256[],bytes[],bytes32,bytes32)": {
        "details": "Returns the identifier of an operation containing a batch of transactions."
      },
      "isOperation(bytes32)": {
        "details": "Returns whether an id corresponds to a registered operation. This includes both Waiting, Ready, and Done operations."
      },
      "isOperationDone(bytes32)": {
        "details": "Returns whether an operation is done or not."
      },
      "isOperationPending(bytes32)": {
        "details": "Returns whether an operation is pending or not. Note that a \"pending\" operation may also be \"ready\"."
      },
      "isOperationReady(bytes32)": {
        "details": "Returns whether an operation is ready for execution. Note that a \"ready\" operation is also \"pending\"."
      },
      "onERC721Received(address,address,uint256,bytes)": {
        "details": "See {IERC721Receiver-onERC721Received}. Always returns `IERC721Receiver.onERC721Received.selector`."
      },
      "renounceRole(bytes32,address)": {
        "details": "Revokes `role` from the calling account. Roles are often managed via {grantRole} and {revokeRole}: this function's purpose is to provide a mechanism for accounts to lose their privileges if they are compromised (such as when a trusted device is misplaced). If the calling account had been revoked `role`, emits a {RoleRevoked} event. Requirements: - the caller must be `callerConfirmation`. May emit a {RoleRevoked} event."
      },
      "revokeRole(bytes32,address)": {
        "details": "Revokes `role` from `account`. If `account` had been granted `role`, emits a {RoleRevoked} event. Requirements: - the caller must have ``role``'s admin role. May emit a {RoleRevoked} event."
      },
      "schedule(address,uint256,bytes,bytes32,bytes32,uint256)": {
        "details": "Schedule an operation containing a single transaction. Emits {CallSalt} if salt is nonzero, and {CallScheduled}. Requirements: - the caller must have the 'proposer' role."
      },
      "scheduleBatch(address[],uint256[],bytes[],bytes32,bytes32,uint256)": {
        "details": "Schedule an operation containing a batch of transactions. Emits {CallSalt} if salt is nonzero, and one {CallScheduled} event per transaction in the batch. Requirements: - the caller must have the 'proposer' role."
      },
      "supportsInterface(bytes4)": {
        "details": "See {IERC165-supportsInterface}."
      },
      "updateDelay(uint256)": {
        "details": "Changes the minimum timelock duration for future operations. Emits a {MinDelayChange} event. Requirements: - the caller must be the timelock itself. This can only be achieved by scheduling and later executing an operation where the timelock is the target and the data is the ABI-encoded call to this function."
      }
    },
    "version": 1
  },
  "userdoc": {
    "kind": "user",
    "methods": {},
    "version": 1
  },
  "storageLayout": {
    "storage": [
      {
        "astId": 26,
        "contract": "contracts/governance/TimeLock.sol:TimeLock",
        "label": "_roles",
        "offset": 0,
        "slot": "0",
        "type": "t_mapping(t_bytes32,t_struct(RoleData)21_storage)"
      },
      {
        "astId": 420,
        "contract": "contracts/governance/TimeLock.sol:TimeLock",
        "label": "_timestamps",
        "offset": 0,
        "slot": "1",
        "type": "t_mapping(t_bytes32,t_uint256)"
      },
      {
        "astId": 422,
        "contract": "contracts/governance/TimeLock.sol:TimeLock",
        "label": "_minDelay",
        "offset": 0,
        "slot": "2",
        "type": "t_uint256"
      }
    ],
    "types": {
      "t_address": {
        "encoding": "inplace",
        "label": "address",
        "numberOfBytes": "20"
      },
      "t_bool": {
        "encoding": "inplace",
        "label": "bool",
        "numberOfBytes": "1"
      },
      "t_bytes32": {
        "encoding": "inplace",
        "label": "bytes32",
        "numberOfBytes": "32"
      },
      "t_mapping(t_address,t_bool)": {
        "encoding": "mapping",
        "key": "t_address",
        "label": "mapping(address => bool)",
        "numberOfBytes": "32",
        "value": "t_bool"
      },
      "t_mapping(t_bytes32,t_struct(RoleData)21_storage)": {
        "encoding": "mapping",
        "key": "t_bytes32",
        "label": "mapping(bytes32 => struct AccessControl.RoleData)",
        "numberOfBytes": "32",
        "value": "t_struct(RoleData)21_storage"
      },
      "t_mapping(t_bytes32,t_uint256)": {
        "encoding": "mapping",
        "key": "t_bytes32",
        "label": "mapping(bytes32 => uint256)",
        "numberOfBytes": "32",
        "value": "t_uint256"
      },
      "t_struct(RoleData)21_storage": {
        "encoding": "inplace",
        "label": "struct AccessControl.RoleData",
        "members": [
          {
            "astId": 18,
            "contract": "contracts/governance/TimeLock.sol:TimeLock",
            "label": "hasRole",
            "offset": 0,
            "slot": "0",
            "type": "t_mapping(t_address,t_bool)"
          },
          {
            "astId": 20,
            "contract": "contracts/governance/TimeLock.sol:TimeLock",
            "label": "adminRole",
            "offset": 0,
            "slot": "1",
            "type": "t_bytes32"
          }
        ],
        "numberOfBytes": "64"
      },
      "t_uint256": {
        "encoding": "inplace",
        "label": "uint256",
        "numberOfBytes": "32"
      }
    }
  }
}