{
  "_format": "hh-sol-artifact-1",
  "contractName": "GovernanceToken",
  "sourceName": "contracts/GovernanceToken.sol",
  "abi": [
    {
      "inputs": [],
      "stateMutability": "nonpayable",
      "type": "constructor"
    },
    {
      "inputs": [],
      "name": "CheckpointUnorderedInsertion",
      "type": "error"
    },
    {
      "inputs": [],
      "name": "ECDSAInvalidSignature",
      "type": "error"
    },
    {
      "inputs": [
        {
          "internalType": "uint256",
          "name": "length",
          "type": "uint256"
        }
      ],
      "name": "ECDSAInvalidSignatureLength",
      "type": "error"
    },
    {
      "inputs": [
        {
          "internalType": "bytes32",
          "name": "s",
          "type": "bytes32"
        }
      ],
      "name": "ECDSAInvalidSignatureS",
      "type": "error"
    },
    {
      "inputs": [
        {
          "internalType": "uint256",
          "name": "increasedSupply",
          "type": "uint256"
        },
        {
          "internalType": "uint256",
          "name": "cap",
          "type": "uint256"
        }
      ],
      "name": "ERC20ExceededSafeSupply",
      "type": "error"
    },
    {
      "inputs": [
        {
          "internalType": "address",
          "name": "spender",
          "type": "address"
        },
        {
          "internalType": "uint256",
          "name": "allowance",
          "type": "uint256"
        },
        {
          "internalType": "uint256",
          "name": "needed",
          "type": "uint256"
        }
      ],
      "name": "ERC20InsufficientAllowance",
      "type": "error"
    },
    {
      "inputs": [
        {
          "internalType": "address",
          "name": "sender",
          "type": "address"
        },
        {
          "internalType": "uint256",
          "name": "balance",
          "type": "uint256"
        },
        {
          "internalType": "uint256",
          "name": "needed",
          "type": "uint256"
        }
      ],
      "name": "ERC20InsufficientBalance",
      "type": "error"
    },
    {
      "inputs": [
        {
          "internalType": "address",
          "name": "approver",
          "type": "address"
        }
      ],
      "name": "ERC20InvalidApprover",
      "type": "error"
    },
    {
      "inputs": [
        {
          "internalType": "address",
          "name": "receiver",
          "type": "address"
        }
      ],
      "name": "ERC20InvalidReceiver",
      "type": "error"
    },
    {
      "inputs": [
        {
          "internalType": "address",
          "name": "sender",
          "type": "address"
        }
      ],
      "name": "ERC20InvalidSender",
      "type": "error"
    },
    {
      "inputs": [
        {
          "internalType": "address",
          "name": "spender",
          "type": "address"
        }
      ],
      "name": "ERC20InvalidSpender",
      "type": "error"
    },
    {
      "inputs": [
        {
          "internalType": "uint256",
          "name": "deadline",
          "type": "uint256"
        }
      ],
      "name": "ERC2612ExpiredSignature",
      "type": "error"
    },
    {
      "inputs": [
        {
          "internalType": "address",
          "name": "signer",
          "type": "address"
        },
        {
          "internalType": "address",
          "name": "owner",
          "type": "address"
        }
      ],
      "name": "ERC2612InvalidSigner",
      "type": "error"
    },
    {
      "inputs": [
        {
          "internalType": "uint256",
          "name": "timepoint",
          "type": "uint256"
        },
        {
          "internalType": "uint48",
          "name": "clock",
          "type": "uint48"
        }
      ],
      "name": "ERC5805FutureLookup",
      "type": "error"
    },
    {
      "inputs": [],
      "name": "ERC6372InconsistentClock",
      "type": "error"
    },
    {
      "inputs": [
        {
          "internalType": "address",
          "name": "account",
          "type": "address"
        },
        {
          "internalType": "uint256",
          "name": "currentNonce",
          "type": "uint256"
        }
      ],
      "name": "InvalidAccountNonce",
      "type": "error"
    },
    {
      "inputs": [],
      "name": "InvalidShortString",
      "type": "error"
    },
    {
      "inputs": [
        {
          "internalType": "uint8",
          "name": "bits",
          "type": "uint8"
        },
        {
          "internalType": "uint256",
          "name": "value",
          "type": "uint256"
        }
      ],
      "name": "SafeCastOverflowedUintDowncast",
      "type": "error"
    },
    {
      "inputs": [
        {
          "internalType": "string",
          "name": "str",
          "type": "string"
        }
      ],
      "name": "StringTooLong",
      "type": "error"
    },
    {
      "inputs": [
        {
          "internalType": "uint256",
          "name": "expiry",
          "type": "uint256"
        }
      ],
      "name": "VotesExpiredSignature",
      "type": "error"
    },
    {
      "anonymous": false,
      "inputs": [
        {
          "indexed": true,
          "internalType": "address",
          "name": "owner",
          "type": "address"
        },
        {
          "indexed": true,
          "internalType": "address",
          "name": "spender",
          "type": "address"
        },
        {
          "indexed": false,
          "internalType": "uint256",
          "name": "value",
          "type": "uint256"
        }
      ],
      "name": "Approval",
      "type": "event"
    },
    {
      "anonymous": false,
      "inputs": [
        {
          "indexed": true,
          "internalType": "address",
          "name": "delegator",
          "type": "address"
        },
        {
          "indexed": true,
          "internalType": "address",
          "name": "fromDelegate",
          "type": "address"
        },
        {
          "indexed": true,
          "internalType": "address",
          "name": "toDelegate",
          "type": "address"
        }
      ],
      "name": "DelegateChanged",
      "type": "event"
    },
    {
      "anonymous": false,
      "inputs": [
        {
          "indexed": true,
          "internalType": "address",
          "name": "delegate",
          "type": "address"
        },
        {
          "indexed": false,
          "internalType": "uint256",
          "name": "previousVotes",
          "type": "uint256"
        },
        {
          "indexed": false,
          "internalType": "uint256",
          "name": "newVotes",
          "type": "uint256"
        }
      ],
      "name": "DelegateVotesChanged",
      "type": "event"
    },
    {
      "anonymous": false,
      "inputs": [],
      "name": "EIP712DomainChanged",
      "type": "event"
    },
    {
      "anonymous": false,
      "inputs": [
        {
          "indexed": true,
          "internalType": "address",
          "name": "from",
          "type": "address"
        },
        {
          "indexed": true,
          "internalType": "address",
          "name": "to",
          "type": "address"
        },
        {
          "indexed": false,
          "internalType": "uint256",
          "name": "value",
          "type": "uint256"
        }
      ],
      "name": "Transfer",
      "type": "event"
    },
    {
      "inputs": [],
      "name": "CLOCK_MODE",
      "outputs": [
        {
          "internalType": "string",
          "name": "",
          "type": "string"
        }
      ],
      "stateMutability": "view",
      "type": "function"
    },
    {
      "inputs": [],
      "name": "DOMAIN_SEPARATOR",
      "outputs": [
        {
          "internalType": "bytes32",
          "name": "",
          "type": "bytes32"
        }
      ],
      "stateMutability": "view",
      "type": "function"
    },
    {
      "inputs": [
        {
          "internalType": "address",
          "name": "owner",
          "type": "address"
        },
        {
          "internalType": "address",
          "name": "spender",
          "type": "address"
        }
      ],
      "name": "allowance",
      "outputs": [
        {
          "internalType": "uint256",
          "name": "",
          "type": "uint256"
        }
      ],
      "stateMutability": "view",
      "type": "function"
    },
    {
      "inputs": [
        {
          "internalType": "address",
          "name": "spender",
          "type": "address"
        },
        {
          "internalType": "uint256",
          "name": "value",
          "type": "uint256"
        }
      ],
      "name": "approve",
      "outputs": [
        {
          "internalType": "bool",
          "name": "",
          "type": "bool"
        }
      ],
      "stateMutability": "nonpayable",
      "type": "function"
    },
    {
      "inputs": [
        {
          "internalType": "address",
          "name": "account",
          "type": "address"
        }
      ],
      "name": "balanceOf",
      "outputs": [
        {
          "internalType": "uint256",
          "name": "",
          "type": "uint256"
        }
      ],
      "stateMutability": "view",
      "type": "function"
    },
    {
      "inputs": [
        {
          "internalType": "address",
          "name": "account",
          "type": "address"
        },
        {
          "internalType": "uint32",
          "name": "pos",
          "type": "uint32"
        }
      ],
      "name": "checkpoints",
      "outputs": [
        {
          "components": [
            {
              "internalType": "uint48",
              "name": "_key",
              "type": "uint48"
            },
            {
              "internalType": "uint208",
              "name": "_value",
              "type": "uint208"
            }
          ],
          "internalType": "struct Checkpoints.Checkpoint208",
          "name": "",
          "type": "tuple"
        }
      ],
      "stateMutability": "view",
      "type": "function"
    },
    {
      "inputs": [],
      "name": "clock",
      "outputs": [
        {
          "internalType": "uint48",
          "name": "",
          "type": "uint48"
        }
      ],
      "stateMutability": "view",
      "type": "function"
    },
    {
      "inputs": [],
      "name": "decimals",
      "outputs": [
        {
          "internalType": "uint8",
          "name": "",
          "type": "uint8"
        }
      ],
      "stateMutability": "view",
      "type": "function"
    },
    {
      "inputs": [
        {
          "internalType": "address",
          "name": "delegatee",
          "type": "address"
        }
      ],
      "name": "delegate",
      "outputs": [],
      "stateMutability": "nonpayable",
      "type": "function"
    },
    {
      "inputs": [
        {
          "internalType": "address",
          "name": "delegatee",
          "type": "address"
        },
        {
          "internalType": "uint256",
          "name": "nonce",
          "type": "uint256"
        },
        {
          "internalType": "uint256",
          "name": "expiry",
          "type": "uint256"
        },
        {
          "internalType": "uint8",
          "name": "v",
          "type": "uint8"
        },
        {
          "internalType": "bytes32",
          "name": "r",
          "type": "bytes32"
        },
        {
          "internalType": "bytes32",
          "name": "s",
          "type": "bytes32"
        }
      ],
      "name": "delegateBySig",
      "outputs": [],
      "stateMutability": "nonpayable",
      "type": "function"
    },
    {
      "inputs": [
        {
          "internalType": "address",
          "name": "account",
          "type": "address"
        }
      ],
      "name": "delegates",
      "outputs": [
        {
          "internalType": "address",
          "name": "",
          "type": "address"
        }
      ],
      "stateMutability": "view",
      "type": "function"
    },
    {
      "inputs": [],
      "name": "eip712Domain",
      "outputs": [
        {
          "internalType": "bytes1",
          "name": "fields",
          "type": "bytes1"
        },
        {
          "internalType": "string",
          "name": "name",
          "type": "string"
        },
        {
          "internalType": "string",
          "name": "version",
          "type": "string"
        },
        {
          "internalType": "uint256",
          "name": "chainId",
          "type": "uint256"
        },
        {
          "internalType": "address",
          "name": "verifyingContract",
          "type": "address"
        },
        {
          "internalType": "bytes32",
          "name": "salt",
          "type": "bytes32"
        },
        {
          "internalType": "uint256[]",
          "name": "extensions",
          "type": "uint256[]"
        }
      ],
      "stateMutability": "view",
      "type": "function"
    },
    {
      "inputs": [
        {
          "internalType": "uint256",
          "name": "timepoint",
          "type": "uint256"
        }
      ],
      "name": "getPastTotalSupply",
      "outputs": [
        {
          "internalType": "uint256",
          "name": "",
          "type": "uint256"
        }
      ],
      "stateMutability": "view",
      "type": "function"
    },
    {
      "inputs": [
        {
          "internalType": "address",
          "name": "account",
          "type": "address"
        },
        {
          "internalType": "uint256",
          "name": "timepoint",
          "type": "uint256"
        }
      ],
      "name": "getPastVotes",
      "outputs": [
        {
          "internalType": "uint256",
          "name": "",
          "type": "uint256"
        }
      ],
      "stateMutability": "view",
      "type": "function"
    },
    {
      "inputs": [
        {
          "internalType": "address",
          "name": "account",
          "type": "address"
        }
      ],
      "name": "getVotes",
      "outputs": [
        {
          "internalType": "uint256",
          "name": "",
          "type": "uint256"
        }
      ],
      "stateMutability": "view",
      "type": "function"
    },
    {
      "inputs": [],
      "name": "name",
      "outputs": [
        {
          "internalType": "string",
          "name": "",
          "type": "string"
        }
      ],
      "stateMutability": "view",
      "type": "function"
    },
    {
      "inputs": [
        {
          "internalType": "address",
          "name": "owner",
          "type": "address"
        }
      ],
      "name": "nonces",
      "outputs": [
        {
          "internalType": "uint256",
          "name": "",
          "type": "uint256"
        }
      ],
      "stateMutability": "view",
      "type": "function"
    },
    {
      "inputs": [
        {
          "internalType": "address",
          "name": "account",
          "type": "address"
        }
      ],
      "name": "numCheckpoints",
      "outputs": [
        {
          "internalType": "uint32",
          "name": "",
          "type": "uint32"
        }
      ],
      "stateMutability": "view",
      "type": "function"
    },
    {
      "inputs": [
        {
          "internalType": "address",
          "name": "owner",
          "type": "address"
        },
        {
          "internalType": "address",
          "name": "spender",
          "type": "address"
        },
        {
          "internalType": "uint256",
          "name": "value",
          "type": "uint256"
        },
        {
          "internalType": "uint256",
          "name": "deadline",
          "type": "uint256"
        },
        {
          "internalType": "uint8",
          "name": "v",
          "type": "uint8"
        },
        {
          "internalType": "bytes32",
          "name": "r",
          "type": "bytes32"
        },
        {
          "internalType": "bytes32",
          "name": "s",
          "type": "bytes32"
        }
      ],
      "name": "permit",
      "outputs": [],
      "stateMutability": "nonpayable",
      "type": "function"
    },
    {
      "inputs": [],
      "name": "symbol",
      "outputs": [
        {
          "internalType": "string",
          "name": "",
          "type": "string"
        }
      ],
      "stateMutability": "view",
      "type": "function"
    },
    {
      "inputs": [],
      "name": "totalSupply",
      "outputs": [
        {
          "internalType": "uint256",
          "name": "",
          "type": "uint256"
        }
      ],
      "stateMutability": "view",
      "type": "function"
    },
    {
      "inputs": [
        {
          "internalType": "address",
          "name": "to",
          "type": "address"
        },
        {
          "internalType": "uint256",
          "name": "value",
          "type": "uint256"
        }
      ],
      "name": "transfer",
      "outputs": [
        {
          "internalType": "bool",
          "name": "",
          "type": "bool"
        }
      ],
      "stateMutability": "nonpayable",
      "type": "function"
    },
    {
      "inputs": [
        {
          "internalType": "address",
          "name": "from",
          "type": "address"
        },
        {
          "internalType": "address",
          "name": "to",
          "type": "address"
        },
        {
          "internalType": "uint256",
          "name": "value",
          "type": "uint256"
        }
      ],
      "name": "transferFrom",
      "outputs": [
        {
          "internalType": "bool",
          "name": "",
          "type": "bool"
        }
      ],
      "stateMutability": "nonpayable",
      "type": "function"
    }
  ],
  "bytecode": "0x6101606040523480156200001257600080fd5b506040518060400160405280600f81526020016e23b7bb32b93730b731b2aa37b5b2b760891b81525080604051806040016040528060018152602001603160f81b8152506040518060400160405280600f81526020016e23b7bb32b93730b731b2aa37b5b2b760891b815250604051806040016040528060048152602001634b4f4b4f60e01b8152508160039081620000ac9190620002a8565b506004620000bb8282620002a8565b50620000cd915083905060056200017c565b61012052620000de8160066200017c565b61014052815160208084019190912060e052815190820120610100524660a0526200016c60e05161010051604080517f8b73c3c69bb8fe3d512ecc4cf759cc79239f7b179b0ffacaa9a75d522b39400f60208201529081019290925260608201524660808201523060a082015260009060c00160405160208183030381529060405280519060200120905090565b60805250503060c05250620003ea565b60006020835110156200019c576200019483620001b5565b9050620001af565b81620001a98482620002a8565b5060ff90505b92915050565b600080829050601f81511115620001ec578260405163305a27a960e01b8152600401620001e3919062000374565b60405180910390fd5b8051620001f982620003c5565b179392505050565b634e487b7160e01b600052604160045260246000fd5b600181811c908216806200022c57607f821691505b6020821081036200024d57634e487b7160e01b600052602260045260246000fd5b50919050565b601f821115620002a3576000816000526020600020601f850160051c810160208610156200027e5750805b601f850160051c820191505b818110156200029f578281556001016200028a565b5050505b505050565b81516001600160401b03811115620002c457620002c462000201565b620002dc81620002d5845462000217565b8462000253565b602080601f831160018114620003145760008415620002fb5750858301515b600019600386901b1c1916600185901b1785556200029f565b600085815260208120601f198616915b82811015620003455788860151825594840194600190910190840162000324565b5085821015620003645787850151600019600388901b60f8161c191681555b5050505050600190811b01905550565b60006020808352835180602085015260005b81811015620003a45785810183015185820160400152820162000386565b506000604082860101526040601f19601f8301168501019250505092915050565b805160208083015191908110156200024d5760001960209190910360031b1b16919050565b60805160a05160c05160e051610100516101205161014051611f30620004456000396000610d9101526000610d6401526000610b1d01526000610af501526000610a5001526000610a7a01526000610aa40152611f306000f3fe608060405234801561001057600080fd5b506004361061014d5760003560e01c806370a08231116100c35780639ab24eb01161007c5780639ab24eb0146102fc578063a9059cbb1461030f578063c3cda52014610322578063d505accf14610335578063dd62ed3e14610348578063f1127ed81461038157600080fd5b806370a082311461026b5780637ecebe001461029457806384b0196e146102a75780638e539e8c146102c257806391ddadf4146102d557806395d89b41146102f457600080fd5b80633644e515116101155780633644e515146101c75780633a46b1a8146101cf5780634bf5d7e9146101e2578063587cde1e146101ea5780635c19a95c1461022e5780636fcfff451461024357600080fd5b806306fdde0314610152578063095ea7b31461017057806318160ddd1461019357806323b872dd146101a5578063313ce567146101b8575b600080fd5b61015a6103c0565b6040516101679190611b0f565b60405180910390f35b61018361017e366004611b3e565b610452565b6040519015158152602001610167565b6002545b604051908152602001610167565b6101836101b3366004611b68565b61046c565b60405160128152602001610167565b610197610490565b6101976101dd366004611b3e565b61049f565b61015a610594565b6102166101f8366004611ba4565b6001600160a01b039081166000908152600860205260409020541690565b6040516001600160a01b039091168152602001610167565b61024161023c366004611ba4565b61060c565b005b610256610251366004611ba4565b61061b565b60405163ffffffff9091168152602001610167565b610197610279366004611ba4565b6001600160a01b031660009081526020819052604090205490565b6101976102a2366004611ba4565b610626565b6102af610631565b6040516101679796959493929190611bbf565b6101976102d0366004611c58565b610677565b6102dd6106e1565b60405165ffffffffffff9091168152602001610167565b61015a6106eb565b61019761030a366004611ba4565b6106fa565b61018361031d366004611b3e565b61072a565b610241610330366004611c82565b610738565b610241610343366004611cda565b6107f5565b610197610356366004611d44565b6001600160a01b03918216600090815260016020908152604080832093909416825291909152205490565b61039461038f366004611d77565b61092f565b60408051825165ffffffffffff1681526020928301516001600160d01b03169281019290925201610167565b6060600380546103cf90611db7565b80601f01602080910402602001604051908101604052809291908181526020018280546103fb90611db7565b80156104485780601f1061041d57610100808354040283529160200191610448565b820191906000526020600020905b81548152906001019060200180831161042b57829003601f168201915b5050505050905090565b600033610460818585610954565b60019150505b92915050565b60003361047a858285610966565b6104858585856109e4565b506001949350505050565b600061049a610a43565b905090565b6000806104aa6106e1565b90506104eb6040518060400160405280601581526020017431bab93932b73a2a34b6b2b837b4b73a1034b9901d60591b8152508265ffffffffffff16610b6e565b61051b6040518060400160405280600e81526020016d3a34b6b2b837b4b73a1034b9901d60911b81525084610b6e565b8065ffffffffffff16831061055957604051637669fc0f60e11b81526004810184905265ffffffffffff821660248201526044015b60405180910390fd5b61058361056584610bb3565b6001600160a01b038616600090815260096020526040902090610bea565b6001600160d01b0316949350505050565b606061059e610ca0565b65ffffffffffff166105ae6106e1565b65ffffffffffff16146105d4576040516301bfc1c560e61b815260040160405180910390fd5b5060408051808201909152601d81527f6d6f64653d626c6f636b6e756d6265722666726f6d3d64656661756c74000000602082015290565b336106178183610cab565b5050565b600061046682610d1d565b600061046682610d3f565b600060608060008060006060610645610d5d565b61064d610d8a565b60408051600080825260208201909252600f60f81b9b939a50919850469750309650945092509050565b6000806106826106e1565b90508065ffffffffffff1683106106bd57604051637669fc0f60e11b81526004810184905265ffffffffffff82166024820152604401610550565b6106d16106c984610bb3565b600a90610bea565b6001600160d01b03169392505050565b600061049a610ca0565b6060600480546103cf90611db7565b6001600160a01b038116600090815260096020526040812061071b90610db7565b6001600160d01b031692915050565b6000336104608185856109e4565b8342111561075c57604051632341d78760e11b815260048101859052602401610550565b604080517fe48329057bfd03d55e49b547132e39cffd9c1820ad7b9d4c5307691425d15adf60208201526001600160a01b0388169181019190915260608101869052608081018590526000906107d6906107ce9060a00160405160208183030381529060405280519060200120610df0565b858585610e1d565b90506107e28187610e4b565b6107ec8188610cab565b50505050505050565b834211156108195760405163313c898160e11b815260048101859052602401610550565b60007f6e71edae12b1b97f4d1f60370fef10105fa2faae0126114a169c64845d6126c98888886108668c6001600160a01b0316600090815260076020526040902080546001810190915590565b6040805160208101969096526001600160a01b0394851690860152929091166060840152608083015260a082015260c0810186905260e00160405160208183030381529060405280519060200120905060006108c182610df0565b905060006108d182878787610e1d565b9050896001600160a01b0316816001600160a01b031614610918576040516325c0072360e11b81526001600160a01b0380831660048301528b166024820152604401610550565b6109238a8a8a610954565b50505050505050505050565b604080518082019091526000808252602082015261094d8383610e9e565b9392505050565b6109618383836001610ed4565b505050565b6001600160a01b0383811660009081526001602090815260408083209386168352929052205460001981146109de57818110156109cf57604051637dc7a0d960e11b81526001600160a01b03841660048201526024810182905260448101839052606401610550565b6109de84848484036000610ed4565b50505050565b6001600160a01b038316610a0e57604051634b637e8f60e11b815260006004820152602401610550565b6001600160a01b038216610a385760405163ec442f0560e01b815260006004820152602401610550565b610961838383610fa9565b6000306001600160a01b037f000000000000000000000000000000000000000000000000000000000000000016148015610a9c57507f000000000000000000000000000000000000000000000000000000000000000046145b15610ac657507f000000000000000000000000000000000000000000000000000000000000000090565b61049a604080517f8b73c3c69bb8fe3d512ecc4cf759cc79239f7b179b0ffacaa9a75d522b39400f60208201527f0000000000000000000000000000000000000000000000000000000000000000918101919091527f000000000000000000000000000000000000000000000000000000000000000060608201524660808201523060a082015260009060c00160405160208183030381529060405280519060200120905090565b6106178282604051602401610b84929190611df1565b60408051601f198184030181529190526020810180516001600160e01b0316632d839cb360e21b179052610fb4565b600065ffffffffffff821115610be6576040516306dfcc6560e41b81526030600482015260248101839052604401610550565b5090565b815460009081816005811115610c49576000610c0584610fc0565b610c0f9085611e29565b60008881526020902090915081015465ffffffffffff9081169087161015610c3957809150610c47565b610c44816001611e3c565b92505b505b6000610c57878785856110a8565b90508015610c9257610c7c87610c6e600184611e29565b600091825260209091200190565b54600160301b90046001600160d01b0316610c95565b60005b979650505050505050565b600061049a43610bb3565b6001600160a01b0382811660008181526008602052604080822080548686166001600160a01b0319821681179092559151919094169392849290917f3134e8a2e6d97e929a7e54011ea5485d7d196dd5f0ba4d4ef95803e8e3fc257f9190a46109618183610d188661110a565b611128565b6001600160a01b03811660009081526009602052604081205461046690611294565b6001600160a01b038116600090815260076020526040812054610466565b606061049a7f000000000000000000000000000000000000000000000000000000000000000060056112c5565b606061049a7f000000000000000000000000000000000000000000000000000000000000000060066112c5565b80546000908015610de757610dd183610c6e600184611e29565b54600160301b90046001600160d01b031661094d565b60009392505050565b6000610466610dfd610a43565b8360405161190160f01b8152600281019290925260228201526042902090565b600080600080610e2f88888888611370565b925092509250610e3f828261143f565b50909695505050505050565b6001600160a01b0382166000908152600760205260409020805460018101909155818114610961576040516301d4b62360e61b81526001600160a01b038416600482015260248101829052604401610550565b60408051808201909152600080825260208201526001600160a01b038316600090815260096020526040902061094d90836114f8565b6001600160a01b038416610efe5760405163e602df0560e01b815260006004820152602401610550565b6001600160a01b038316610f2857604051634a1406b160e11b815260006004820152602401610550565b6001600160a01b03808516600090815260016020908152604080832093871683529290522082905580156109de57826001600160a01b0316846001600160a01b03167f8c5be1e5ebec7d5bd14f71427d1e84f3dd0314c0f7b2291e5b200ac8c7c3b92584604051610f9b91815260200190565b60405180910390a350505050565b610961838383611568565b610fbd816115cf565b50565b600081600003610fd257506000919050565b60006001610fdf846115f0565b901c6001901b90506001818481610ff857610ff8611e4f565b048201901c9050600181848161101057611010611e4f565b048201901c9050600181848161102857611028611e4f565b048201901c9050600181848161104057611040611e4f565b048201901c9050600181848161105857611058611e4f565b048201901c9050600181848161107057611070611e4f565b048201901c9050600181848161108857611088611e4f565b048201901c905061094d818285816110a2576110a2611e4f565b04611684565b60005b818310156111025760006110bf848461169a565b60008781526020902090915065ffffffffffff86169082015465ffffffffffff1611156110ee578092506110fc565b6110f9816001611e3c565b93505b506110ab565b509392505050565b6001600160a01b038116600090815260208190526040812054610466565b816001600160a01b0316836001600160a01b03161415801561114a5750600081115b15610961576001600160a01b038316156111f2576001600160a01b0383166000908152600960205260408120819061118d906116b5611188866116c1565b6116f5565b6001600160d01b031691506001600160d01b03169150846001600160a01b03167fdec2bacdd2f05b59de34da9b523dff8be42e5e38e818c82fdb0bae774387a72483836040516111e7929190918252602082015260400190565b60405180910390a250505b6001600160a01b03821615610961576001600160a01b0382166000908152600960205260408120819061122b9061172e611188866116c1565b6001600160d01b031691506001600160d01b03169150836001600160a01b03167fdec2bacdd2f05b59de34da9b523dff8be42e5e38e818c82fdb0bae774387a7248383604051611285929190918252602082015260400190565b60405180910390a25050505050565b600063ffffffff821115610be6576040516306dfcc6560e41b81526020600482015260248101839052604401610550565b606060ff83146112df576112d88361173a565b9050610466565b8180546112eb90611db7565b80601f016020809104026020016040519081016040528092919081815260200182805461131790611db7565b80156113645780601f1061133957610100808354040283529160200191611364565b820191906000526020600020905b81548152906001019060200180831161134757829003601f168201915b50505050509050610466565b600080807f7fffffffffffffffffffffffffffffff5d576e7357a4501ddfe92f46681b20a08411156113ab5750600091506003905082611435565b604080516000808252602082018084528a905260ff891692820192909252606081018790526080810186905260019060a0016020604051602081039080840390855afa1580156113ff573d6000803e3d6000fd5b5050604051601f1901519150506001600160a01b03811661142b57506000925060019150829050611435565b9250600091508190505b9450945094915050565b600082600381111561145357611453611e65565b0361145c575050565b600182600381111561147057611470611e65565b0361148e5760405163f645eedf60e01b815260040160405180910390fd5b60028260038111156114a2576114a2611e65565b036114c35760405163fce698f760e01b815260048101829052602401610550565b60038260038111156114d7576114d7611e65565b03610617576040516335e2f38360e21b815260048101829052602401610550565b6040805180820190915260008082526020820152826000018263ffffffff168154811061152757611527611e7b565b60009182526020918290206040805180820190915291015465ffffffffffff81168252600160301b90046001600160d01b0316918101919091529392505050565b611573838383611779565b6001600160a01b0383166115c457600061158c60025490565b90506001600160d01b03808211156115c157604051630e58ae9360e11b81526004810183905260248101829052604401610550565b50505b6109618383836118a3565b60006a636f6e736f6c652e6c6f679050600080835160208501845afa505050565b600080608083901c1561160557608092831c92015b604083901c1561161757604092831c92015b602083901c1561162957602092831c92015b601083901c1561163b57601092831c92015b600883901c1561164d57600892831c92015b600483901c1561165f57600492831c92015b600283901c1561167157600292831c92015b600183901c156104665760010192915050565b6000818310611693578161094d565b5090919050565b60006116a96002848418611e91565b61094d90848416611e3c565b600061094d8284611eb3565b60006001600160d01b03821115610be6576040516306dfcc6560e41b815260d0600482015260248101839052604401610550565b6000806117216117036106e1565b61171961170f88610db7565b868863ffffffff16565b879190611919565b915091505b935093915050565b600061094d8284611eda565b6060600061174783611927565b604080516020808252818301909252919250600091906020820181803683375050509182525060208101929092525090565b6001600160a01b0383166117a45780600260008282546117999190611e3c565b909155506118169050565b6001600160a01b038316600090815260208190526040902054818110156117f75760405163391434e360e21b81526001600160a01b03851660048201526024810182905260448101839052606401610550565b6001600160a01b03841660009081526020819052604090209082900390555b6001600160a01b03821661183257600280548290039055611851565b6001600160a01b03821660009081526020819052604090208054820190555b816001600160a01b0316836001600160a01b03167fddf252ad1be2c89b69c2b068fc378daa952ba7f163c4a11628f55a4df523b3ef8360405161189691815260200190565b60405180910390a3505050565b6001600160a01b0383166118c5576118c2600a61172e611188846116c1565b50505b6001600160a01b0382166118e7576118e4600a6116b5611188846116c1565b50505b6001600160a01b0383811660009081526008602052604080822054858416835291205461096192918216911683611128565b60008061172185858561194f565b600060ff8216601f81111561046657604051632cd44ac360e21b815260040160405180910390fd5b825460009081908015611a6e57600061196d87610c6e600185611e29565b60408051808201909152905465ffffffffffff808216808452600160301b9092046001600160d01b0316602084015291925090871610156119c157604051632520601d60e01b815260040160405180910390fd5b805165ffffffffffff808816911603611a0d57846119e488610c6e600186611e29565b80546001600160d01b0392909216600160301b0265ffffffffffff909216919091179055611a5e565b6040805180820190915265ffffffffffff80881682526001600160d01b0380881660208085019182528b54600181018d5560008d81529190912094519151909216600160301b029216919091179101555b6020015192508391506117269050565b50506040805180820190915265ffffffffffff80851682526001600160d01b0380851660208085019182528854600181018a5560008a815291822095519251909316600160301b029190931617920191909155905081611726565b6000815180845260005b81811015611aef57602081850181015186830182015201611ad3565b506000602082860101526020601f19601f83011685010191505092915050565b60208152600061094d6020830184611ac9565b80356001600160a01b0381168114611b3957600080fd5b919050565b60008060408385031215611b5157600080fd5b611b5a83611b22565b946020939093013593505050565b600080600060608486031215611b7d57600080fd5b611b8684611b22565b9250611b9460208501611b22565b9150604084013590509250925092565b600060208284031215611bb657600080fd5b61094d82611b22565b60ff60f81b881681526000602060e06020840152611be060e084018a611ac9565b8381036040850152611bf2818a611ac9565b606085018990526001600160a01b038816608086015260a0850187905284810360c08601528551808252602080880193509091019060005b81811015611c4657835183529284019291840191600101611c2a565b50909c9b505050505050505050505050565b600060208284031215611c6a57600080fd5b5035919050565b803560ff81168114611b3957600080fd5b60008060008060008060c08789031215611c9b57600080fd5b611ca487611b22565b95506020870135945060408701359350611cc060608801611c71565b92506080870135915060a087013590509295509295509295565b600080600080600080600060e0888a031215611cf557600080fd5b611cfe88611b22565b9650611d0c60208901611b22565b95506040880135945060608801359350611d2860808901611c71565b925060a0880135915060c0880135905092959891949750929550565b60008060408385031215611d5757600080fd5b611d6083611b22565b9150611d6e60208401611b22565b90509250929050565b60008060408385031215611d8a57600080fd5b611d9383611b22565b9150602083013563ffffffff81168114611dac57600080fd5b809150509250929050565b600181811c90821680611dcb57607f821691505b602082108103611deb57634e487b7160e01b600052602260045260246000fd5b50919050565b604081526000611e046040830185611ac9565b90508260208301529392505050565b634e487b7160e01b600052601160045260246000fd5b8181038181111561046657610466611e13565b8082018082111561046657610466611e13565b634e487b7160e01b600052601260045260246000fd5b634e487b7160e01b600052602160045260246000fd5b634e487b7160e01b600052603260045260246000fd5b600082611eae57634e487b7160e01b600052601260045260246000fd5b500490565b6001600160d01b03828116828216039080821115611ed357611ed3611e13565b5092915050565b6001600160d01b03818116838216019080821115611ed357611ed3611e1356fea2646970667358221220443ab24b83c5bc2bd0addd3e240cf6f62765015be15fe6d045e615a29e1bbfa964736f6c63430008180033",
  "linkReferences": {},
  "deployedLinkReferences": {}
}